{
  "contractName": "KronToken",
  "abi": [
    {
      "inputs": [],
      "stateMutability": "nonpayable",
      "type": "constructor"
    },
    {
      "anonymous": false,
      "inputs": [
        {
          "indexed": true,
          "internalType": "address",
          "name": "owner",
          "type": "address"
        },
        {
          "indexed": true,
          "internalType": "address",
          "name": "spender",
          "type": "address"
        },
        {
          "indexed": false,
          "internalType": "uint256",
          "name": "value",
          "type": "uint256"
        }
      ],
      "name": "Approval",
      "type": "event"
    },
    {
      "anonymous": false,
      "inputs": [
        {
          "indexed": true,
          "internalType": "bytes32",
          "name": "role",
          "type": "bytes32"
        },
        {
          "indexed": true,
          "internalType": "bytes32",
          "name": "previousAdminRole",
          "type": "bytes32"
        },
        {
          "indexed": true,
          "internalType": "bytes32",
          "name": "newAdminRole",
          "type": "bytes32"
        }
      ],
      "name": "RoleAdminChanged",
      "type": "event"
    },
    {
      "anonymous": false,
      "inputs": [
        {
          "indexed": true,
          "internalType": "bytes32",
          "name": "role",
          "type": "bytes32"
        },
        {
          "indexed": true,
          "internalType": "address",
          "name": "account",
          "type": "address"
        },
        {
          "indexed": true,
          "internalType": "address",
          "name": "sender",
          "type": "address"
        }
      ],
      "name": "RoleGranted",
      "type": "event"
    },
    {
      "anonymous": false,
      "inputs": [
        {
          "indexed": true,
          "internalType": "bytes32",
          "name": "role",
          "type": "bytes32"
        },
        {
          "indexed": true,
          "internalType": "address",
          "name": "account",
          "type": "address"
        },
        {
          "indexed": true,
          "internalType": "address",
          "name": "sender",
          "type": "address"
        }
      ],
      "name": "RoleRevoked",
      "type": "event"
    },
    {
      "anonymous": false,
      "inputs": [
        {
          "indexed": true,
          "internalType": "address",
          "name": "from",
          "type": "address"
        },
        {
          "indexed": true,
          "internalType": "address",
          "name": "to",
          "type": "address"
        },
        {
          "indexed": false,
          "internalType": "uint256",
          "name": "value",
          "type": "uint256"
        }
      ],
      "name": "Transfer",
      "type": "event"
    },
    {
      "inputs": [],
      "name": "DEFAULT_ADMIN_ROLE",
      "outputs": [
        {
          "internalType": "bytes32",
          "name": "",
          "type": "bytes32"
        }
      ],
      "stateMutability": "view",
      "type": "function"
    },
    {
      "inputs": [],
      "name": "MINTER_ROLE",
      "outputs": [
        {
          "internalType": "bytes32",
          "name": "",
          "type": "bytes32"
        }
      ],
      "stateMutability": "view",
      "type": "function"
    },
    {
      "inputs": [
        {
          "internalType": "address",
          "name": "owner",
          "type": "address"
        },
        {
          "internalType": "address",
          "name": "spender",
          "type": "address"
        }
      ],
      "name": "allowance",
      "outputs": [
        {
          "internalType": "uint256",
          "name": "",
          "type": "uint256"
        }
      ],
      "stateMutability": "view",
      "type": "function"
    },
    {
      "inputs": [
        {
          "internalType": "address",
          "name": "spender",
          "type": "address"
        },
        {
          "internalType": "uint256",
          "name": "amount",
          "type": "uint256"
        }
      ],
      "name": "approve",
      "outputs": [
        {
          "internalType": "bool",
          "name": "",
          "type": "bool"
        }
      ],
      "stateMutability": "nonpayable",
      "type": "function"
    },
    {
      "inputs": [
        {
          "internalType": "address",
          "name": "account",
          "type": "address"
        }
      ],
      "name": "balanceOf",
      "outputs": [
        {
          "internalType": "uint256",
          "name": "",
          "type": "uint256"
        }
      ],
      "stateMutability": "view",
      "type": "function"
    },
    {
      "inputs": [
        {
          "internalType": "uint256",
          "name": "amount",
          "type": "uint256"
        }
      ],
      "name": "burn",
      "outputs": [],
      "stateMutability": "nonpayable",
      "type": "function"
    },
    {
      "inputs": [
        {
          "internalType": "address",
          "name": "account",
          "type": "address"
        },
        {
          "internalType": "uint256",
          "name": "amount",
          "type": "uint256"
        }
      ],
      "name": "burnFrom",
      "outputs": [],
      "stateMutability": "nonpayable",
      "type": "function"
    },
    {
      "inputs": [],
      "name": "decimals",
      "outputs": [
        {
          "internalType": "uint8",
          "name": "",
          "type": "uint8"
        }
      ],
      "stateMutability": "view",
      "type": "function"
    },
    {
      "inputs": [
        {
          "internalType": "address",
          "name": "spender",
          "type": "address"
        },
        {
          "internalType": "uint256",
          "name": "subtractedValue",
          "type": "uint256"
        }
      ],
      "name": "decreaseAllowance",
      "outputs": [
        {
          "internalType": "bool",
          "name": "",
          "type": "bool"
        }
      ],
      "stateMutability": "nonpayable",
      "type": "function"
    },
    {
      "inputs": [
        {
          "internalType": "bytes32",
          "name": "role",
          "type": "bytes32"
        }
      ],
      "name": "getRoleAdmin",
      "outputs": [
        {
          "internalType": "bytes32",
          "name": "",
          "type": "bytes32"
        }
      ],
      "stateMutability": "view",
      "type": "function"
    },
    {
      "inputs": [
        {
          "internalType": "bytes32",
          "name": "role",
          "type": "bytes32"
        },
        {
          "internalType": "address",
          "name": "account",
          "type": "address"
        }
      ],
      "name": "grantRole",
      "outputs": [],
      "stateMutability": "nonpayable",
      "type": "function"
    },
    {
      "inputs": [
        {
          "internalType": "bytes32",
          "name": "role",
          "type": "bytes32"
        },
        {
          "internalType": "address",
          "name": "account",
          "type": "address"
        }
      ],
      "name": "hasRole",
      "outputs": [
        {
          "internalType": "bool",
          "name": "",
          "type": "bool"
        }
      ],
      "stateMutability": "view",
      "type": "function"
    },
    {
      "inputs": [
        {
          "internalType": "address",
          "name": "spender",
          "type": "address"
        },
        {
          "internalType": "uint256",
          "name": "addedValue",
          "type": "uint256"
        }
      ],
      "name": "increaseAllowance",
      "outputs": [
        {
          "internalType": "bool",
          "name": "",
          "type": "bool"
        }
      ],
      "stateMutability": "nonpayable",
      "type": "function"
    },
    {
      "inputs": [],
      "name": "name",
      "outputs": [
        {
          "internalType": "string",
          "name": "",
          "type": "string"
        }
      ],
      "stateMutability": "view",
      "type": "function"
    },
    {
      "inputs": [
        {
          "internalType": "bytes32",
          "name": "role",
          "type": "bytes32"
        },
        {
          "internalType": "address",
          "name": "account",
          "type": "address"
        }
      ],
      "name": "renounceRole",
      "outputs": [],
      "stateMutability": "nonpayable",
      "type": "function"
    },
    {
      "inputs": [
        {
          "internalType": "bytes32",
          "name": "role",
          "type": "bytes32"
        },
        {
          "internalType": "address",
          "name": "account",
          "type": "address"
        }
      ],
      "name": "revokeRole",
      "outputs": [],
      "stateMutability": "nonpayable",
      "type": "function"
    },
    {
      "inputs": [
        {
          "internalType": "bytes4",
          "name": "interfaceId",
          "type": "bytes4"
        }
      ],
      "name": "supportsInterface",
      "outputs": [
        {
          "internalType": "bool",
          "name": "",
          "type": "bool"
        }
      ],
      "stateMutability": "view",
      "type": "function"
    },
    {
      "inputs": [],
      "name": "symbol",
      "outputs": [
        {
          "internalType": "string",
          "name": "",
          "type": "string"
        }
      ],
      "stateMutability": "view",
      "type": "function"
    },
    {
      "inputs": [],
      "name": "totalSupply",
      "outputs": [
        {
          "internalType": "uint256",
          "name": "",
          "type": "uint256"
        }
      ],
      "stateMutability": "view",
      "type": "function"
    },
    {
      "inputs": [],
      "name": "rewardsFactor",
      "outputs": [
        {
          "internalType": "uint256",
          "name": "",
          "type": "uint256"
        }
      ],
      "stateMutability": "view",
      "type": "function"
    },
    {
      "inputs": [
        {
          "internalType": "address",
          "name": "_to",
          "type": "address"
        },
        {
          "internalType": "uint256",
          "name": "_value",
          "type": "uint256"
        }
      ],
      "name": "transfer",
      "outputs": [
        {
          "internalType": "bool",
          "name": "",
          "type": "bool"
        }
      ],
      "stateMutability": "nonpayable",
      "type": "function"
    },
    {
      "inputs": [
        {
          "internalType": "address",
          "name": "_from",
          "type": "address"
        },
        {
          "internalType": "address",
          "name": "_to",
          "type": "address"
        },
        {
          "internalType": "uint256",
          "name": "_value",
          "type": "uint256"
        }
      ],
      "name": "transferFrom",
      "outputs": [
        {
          "internalType": "bool",
          "name": "",
          "type": "bool"
        }
      ],
      "stateMutability": "nonpayable",
      "type": "function"
    },
    {
      "inputs": [
        {
          "internalType": "address",
          "name": "to",
          "type": "address"
        },
        {
          "internalType": "uint256",
          "name": "amount",
          "type": "uint256"
        }
      ],
      "name": "mint",
      "outputs": [],
      "stateMutability": "nonpayable",
      "type": "function"
    }
  ],
  "bytecode": "0x60806040526b015b6a759f4835dc240000006007553480156200002157600080fd5b506040518060400160405280600a81526020017f4b524f4e20546f6b656e000000000000000000000000000000000000000000008152506040518060400160405280600481526020017f4b524f4e000000000000000000000000000000000000000000000000000000008152508160039080519060200190620000a6929190620004d1565b508060049080519060200190620000bf929190620004d1565b50505033600660006101000a81548173ffffffffffffffffffffffffffffffffffffffff021916908373ffffffffffffffffffffffffffffffffffffffff16021790555060286008819055507320788d5f1a23e3f9db2ebfc2be490d6567990921600960006101000a81548173ffffffffffffffffffffffffffffffffffffffff021916908373ffffffffffffffffffffffffffffffffffffffff16021790555062000196600660009054906101000a900473ffffffffffffffffffffffffffffffffffffffff16600754620001d360201b60201c565b620001cd6000801b600660009054906101000a900473ffffffffffffffffffffffffffffffffffffffff166200034c60201b60201c565b6200072d565b600073ffffffffffffffffffffffffffffffffffffffff168273ffffffffffffffffffffffffffffffffffffffff16141562000246576040517f08c379a00000000000000000000000000000000000000000000000000000000081526004016200023d90620005b9565b60405180910390fd5b6200025a600083836200036260201b60201c565b80600260008282546200026e919062000609565b92505081905550806000808473ffffffffffffffffffffffffffffffffffffffff1673ffffffffffffffffffffffffffffffffffffffff1681526020019081526020016000206000828254620002c5919062000609565b925050819055508173ffffffffffffffffffffffffffffffffffffffff16600073ffffffffffffffffffffffffffffffffffffffff167fddf252ad1be2c89b69c2b068fc378daa952ba7f163c4a11628f55a4df523b3ef836040516200032c9190620005db565b60405180910390a362000348600083836200036760201b60201c565b5050565b6200035e82826200036c60201b60201c565b5050565b505050565b505050565b6200037e82826200045e60201b60201c565b6200045a5760016005600084815260200190815260200160002060000160008373ffffffffffffffffffffffffffffffffffffffff1673ffffffffffffffffffffffffffffffffffffffff16815260200190815260200160002060006101000a81548160ff021916908315150217905550620003ff620004c960201b60201c565b73ffffffffffffffffffffffffffffffffffffffff168173ffffffffffffffffffffffffffffffffffffffff16837f2f8788117e7eff1d82e926ec794901d17c78024a50270940304540a733656f0d60405160405180910390a45b5050565b60006005600084815260200190815260200160002060000160008373ffffffffffffffffffffffffffffffffffffffff1673ffffffffffffffffffffffffffffffffffffffff16815260200190815260200160002060009054906101000a900460ff16905092915050565b600033905090565b828054620004df9062000670565b90600052602060002090601f0160209004810192826200050357600085556200054f565b82601f106200051e57805160ff19168380011785556200054f565b828001600101855582156200054f579182015b828111156200054e57825182559160200191906001019062000531565b5b5090506200055e919062000562565b5090565b5b808211156200057d57600081600090555060010162000563565b5090565b600062000590601f83620005f8565b91506200059d8262000704565b602082019050919050565b620005b38162000666565b82525050565b60006020820190508181036000830152620005d48162000581565b9050919050565b6000602082019050620005f26000830184620005a8565b92915050565b600082825260208201905092915050565b6000620006168262000666565b9150620006238362000666565b9250827fffffffffffffffffffffffffffffffffffffffffffffffffffffffffffffffff038211156200065b576200065a620006a6565b5b828201905092915050565b6000819050919050565b600060028204905060018216806200068957607f821691505b60208210811415620006a0576200069f620006d5565b5b50919050565b7f4e487b7100000000000000000000000000000000000000000000000000000000600052601160045260246000fd5b7f4e487b7100000000000000000000000000000000000000000000000000000000600052602260045260246000fd5b7f45524332303a206d696e7420746f20746865207a65726f206164647265737300600082015250565b612ceb806200073d6000396000f3fe608060405234801561001057600080fd5b506004361061014d5760003560e01c806342966c68116100c3578063a217fddf1161007c578063a217fddf146103c4578063a457c2d7146103e2578063a9059cbb14610412578063d539139314610442578063d547741f14610460578063dd62ed3e1461047c5761014d565b806342966c68146102f05780634369c2501461030c57806370a082311461032a57806379cc67901461035a57806391d148541461037657806395d89b41146103a65761014d565b8063248a9ca311610115578063248a9ca31461021e5780632f2ff15d1461024e578063313ce5671461026a57806336568abe1461028857806339509351146102a457806340c10f19146102d45761014d565b806301ffc9a71461015257806306fdde0314610182578063095ea7b3146101a057806318160ddd146101d057806323b872dd146101ee575b600080fd5b61016c60048036038101906101679190611df4565b6104ac565b60405161017991906121a4565b60405180910390f35b61018a610526565b60405161019791906121da565b60405180910390f35b6101ba60048036038101906101b59190611d47565b6105b8565b6040516101c791906121a4565b60405180910390f35b6101d86105d6565b6040516101e591906123fc565b60405180910390f35b61020860048036038101906102039190611cf4565b6105e0565b60405161021591906121a4565b60405180910390f35b61023860048036038101906102339190611d87565b6106b0565b60405161024591906121bf565b60405180910390f35b61026860048036038101906102639190611db4565b6106d0565b005b6102726106f9565b60405161027f9190612417565b60405180910390f35b6102a2600480360381019061029d9190611db4565b610702565b005b6102be60048036038101906102b99190611d47565b610785565b6040516102cb91906121a4565b60405180910390f35b6102ee60048036038101906102e99190611d47565b610831565b005b61030a60048036038101906103059190611e21565b6108a8565b005b6103146108bc565b60405161032191906123fc565b60405180910390f35b610344600480360381019061033f9190611c87565b6108c6565b60405161035191906123fc565b60405180910390f35b610374600480360381019061036f9190611d47565b61090e565b005b610390600480360381019061038b9190611db4565b610989565b60405161039d91906121a4565b60405180910390f35b6103ae6109f4565b6040516103bb91906121da565b60405180910390f35b6103cc610a86565b6040516103d991906121bf565b60405180910390f35b6103fc60048036038101906103f79190611d47565b610a8d565b60405161040991906121a4565b60405180910390f35b61042c60048036038101906104279190611d47565b610b78565b60405161043991906121a4565b60405180910390f35b61044a610c4c565b60405161045791906121bf565b60405180910390f35b61047a60048036038101906104759190611db4565b610c70565b005b61049660048036038101906104919190611cb4565b610c99565b6040516104a391906123fc565b60405180910390f35b60007f7965db0b000000000000000000000000000000000000000000000000000000007bffffffffffffffffffffffffffffffffffffffffffffffffffffffff1916827bffffffffffffffffffffffffffffffffffffffffffffffffffffffff1916148061051f575061051e82610d20565b5b9050919050565b60606003805461053590612656565b80601f016020809104026020016040519081016040528092919081815260200182805461056190612656565b80156105ae5780601f10610583576101008083540402835291602001916105ae565b820191906000526020600020905b81548152906001019060200180831161059157829003601f168201915b5050505050905090565b60006105cc6105c5610d8a565b8484610d92565b6001905092915050565b6000600254905090565b6000806105ed8585610f5d565b90506105f881610fd9565b60006008548461060891906124af565b90506106208686838761061b919061253a565b6110ac565b156106a25761065286600960009054906101000a900473ffffffffffffffffffffffffffffffffffffffff16836110ac565b5043600a60008473ffffffffffffffffffffffffffffffffffffffff1673ffffffffffffffffffffffffffffffffffffffff168152602001908152602001600020819055506001925050506106a9565b6000925050505b9392505050565b600060056000838152602001908152602001600020600101549050919050565b6106d9826106b0565b6106ea816106e5610d8a565b6111a4565b6106f48383611241565b505050565b60006012905090565b61070a610d8a565b73ffffffffffffffffffffffffffffffffffffffff168173ffffffffffffffffffffffffffffffffffffffff1614610777576040517f08c379a000000000000000000000000000000000000000000000000000000000815260040161076e906123bc565b60405180910390fd5b6107818282611322565b5050565b6000610827610792610d8a565b8484600160006107a0610d8a565b73ffffffffffffffffffffffffffffffffffffffff1673ffffffffffffffffffffffffffffffffffffffff16815260200190815260200160002060008873ffffffffffffffffffffffffffffffffffffffff1673ffffffffffffffffffffffffffffffffffffffff168152602001908152602001600020546108229190612459565b610d92565b6001905092915050565b61085b7f9f2df0fed2c77648de5860a4cc508cd0818c85b8b8a1ab4ceeef8d981c8956a633610989565b61089a576040517f08c379a0000000000000000000000000000000000000000000000000000000008152600401610891906122bc565b60405180910390fd5b6108a48282611404565b5050565b6108b96108b3610d8a565b82611564565b50565b6000600854905090565b60008060008373ffffffffffffffffffffffffffffffffffffffff1673ffffffffffffffffffffffffffffffffffffffff168152602001908152602001600020549050919050565b60006109218361091c610d8a565b610c99565b905081811015610966576040517f08c379a000000000000000000000000000000000000000000000000000000000815260040161095d906122fc565b60405180910390fd5b61097a83610972610d8a565b848403610d92565b6109848383611564565b505050565b60006005600084815260200190815260200160002060000160008373ffffffffffffffffffffffffffffffffffffffff1673ffffffffffffffffffffffffffffffffffffffff16815260200190815260200160002060009054906101000a900460ff16905092915050565b606060048054610a0390612656565b80601f0160208091040260200160405190810160405280929190818152602001828054610a2f90612656565b8015610a7c5780601f10610a5157610100808354040283529160200191610a7c565b820191906000526020600020905b815481529060010190602001808311610a5f57829003601f168201915b5050505050905090565b6000801b81565b60008060016000610a9c610d8a565b73ffffffffffffffffffffffffffffffffffffffff1673ffffffffffffffffffffffffffffffffffffffff16815260200190815260200160002060008573ffffffffffffffffffffffffffffffffffffffff1673ffffffffffffffffffffffffffffffffffffffff16815260200190815260200160002054905082811015610b59576040517f08c379a0000000000000000000000000000000000000000000000000000000008152600401610b509061239c565b60405180910390fd5b610b6d610b64610d8a565b85858403610d92565b600191505092915050565b6000803390506000610b8a8286610f5d565b9050610b9581610fd9565b600060085485610ba591906124af565b9050610bbc868287610bb7919061253a565b61173b565b15610c3e57610bed600960009054906101000a900473ffffffffffffffffffffffffffffffffffffffff168261173b565b5043600a60008473ffffffffffffffffffffffffffffffffffffffff1673ffffffffffffffffffffffffffffffffffffffff1681526020019081526020016000208190555060019350505050610c46565b600093505050505b92915050565b7f9f2df0fed2c77648de5860a4cc508cd0818c85b8b8a1ab4ceeef8d981c8956a681565b610c79826106b0565b610c8a81610c85610d8a565b6111a4565b610c948383611322565b505050565b6000600160008473ffffffffffffffffffffffffffffffffffffffff1673ffffffffffffffffffffffffffffffffffffffff16815260200190815260200160002060008373ffffffffffffffffffffffffffffffffffffffff1673ffffffffffffffffffffffffffffffffffffffff16815260200190815260200160002054905092915050565b60007f01ffc9a7000000000000000000000000000000000000000000000000000000007bffffffffffffffffffffffffffffffffffffffffffffffffffffffff1916827bffffffffffffffffffffffffffffffffffffffffffffffffffffffff1916149050919050565b600033905090565b600073ffffffffffffffffffffffffffffffffffffffff168373ffffffffffffffffffffffffffffffffffffffff161415610e02576040517f08c379a0000000000000000000000000000000000000000000000000000000008152600401610df99061235c565b60405180910390fd5b600073ffffffffffffffffffffffffffffffffffffffff168273ffffffffffffffffffffffffffffffffffffffff161415610e72576040517f08c379a0000000000000000000000000000000000000000000000000000000008152600401610e699061225c565b60405180910390fd5b80600160008573ffffffffffffffffffffffffffffffffffffffff1673ffffffffffffffffffffffffffffffffffffffff16815260200190815260200160002060008473ffffffffffffffffffffffffffffffffffffffff1673ffffffffffffffffffffffffffffffffffffffff168152602001908152602001600020819055508173ffffffffffffffffffffffffffffffffffffffff168373ffffffffffffffffffffffffffffffffffffffff167f8c5be1e5ebec7d5bd14f71427d1e84f3dd0314c0f7b2291e5b200ac8c7c3b92583604051610f5091906123fc565b60405180910390a3505050565b6000610f6883611759565b1580610f7a5750610f7882611759565b155b610fb9576040517f08c379a0000000000000000000000000000000000000000000000000000000008152600401610fb09061237c565b60405180910390fd5b610fc283611759565b15610fcf57819050610fd3565b8290505b92915050565b600080600a60008473ffffffffffffffffffffffffffffffffffffffff1673ffffffffffffffffffffffffffffffffffffffff168152602001908152602001600020541480611066575043600a60008473ffffffffffffffffffffffffffffffffffffffff1673ffffffffffffffffffffffffffffffffffffffff16815260200190815260200160002054105b9050806110a8576040517f08c379a000000000000000000000000000000000000000000000000000000000815260040161109f9061229c565b60405180910390fd5b5050565b60006110b984848461176c565b6000600160008673ffffffffffffffffffffffffffffffffffffffff1673ffffffffffffffffffffffffffffffffffffffff1681526020019081526020016000206000611104610d8a565b73ffffffffffffffffffffffffffffffffffffffff1673ffffffffffffffffffffffffffffffffffffffff16815260200190815260200160002054905082811015611184576040517f08c379a000000000000000000000000000000000000000000000000000000000815260040161117b906122dc565b60405180910390fd5b61119885611190610d8a565b858403610d92565b60019150509392505050565b6111ae8282610989565b61123d576111d38173ffffffffffffffffffffffffffffffffffffffff1660146119ed565b6111e18360001c60206119ed565b6040516020016111f292919061216a565b6040516020818303038152906040526040517f08c379a000000000000000000000000000000000000000000000000000000000815260040161123491906121da565b60405180910390fd5b5050565b61124b8282610989565b61131e5760016005600084815260200190815260200160002060000160008373ffffffffffffffffffffffffffffffffffffffff1673ffffffffffffffffffffffffffffffffffffffff16815260200190815260200160002060006101000a81548160ff0219169083151502179055506112c3610d8a565b73ffffffffffffffffffffffffffffffffffffffff168173ffffffffffffffffffffffffffffffffffffffff16837f2f8788117e7eff1d82e926ec794901d17c78024a50270940304540a733656f0d60405160405180910390a45b5050565b61132c8282610989565b156114005760006005600084815260200190815260200160002060000160008373ffffffffffffffffffffffffffffffffffffffff1673ffffffffffffffffffffffffffffffffffffffff16815260200190815260200160002060006101000a81548160ff0219169083151502179055506113a5610d8a565b73ffffffffffffffffffffffffffffffffffffffff168173ffffffffffffffffffffffffffffffffffffffff16837ff6391f5c32d9c69d2a47ea670b442974b53935d1edc7fd64eb21e047a839171b60405160405180910390a45b5050565b600073ffffffffffffffffffffffffffffffffffffffff168273ffffffffffffffffffffffffffffffffffffffff161415611474576040517f08c379a000000000000000000000000000000000000000000000000000000000815260040161146b906123dc565b60405180910390fd5b61148060008383611c29565b80600260008282546114929190612459565b92505081905550806000808473ffffffffffffffffffffffffffffffffffffffff1673ffffffffffffffffffffffffffffffffffffffff16815260200190815260200160002060008282546114e79190612459565b925050819055508173ffffffffffffffffffffffffffffffffffffffff16600073ffffffffffffffffffffffffffffffffffffffff167fddf252ad1be2c89b69c2b068fc378daa952ba7f163c4a11628f55a4df523b3ef8360405161154c91906123fc565b60405180910390a361156060008383611c2e565b5050565b600073ffffffffffffffffffffffffffffffffffffffff168273ffffffffffffffffffffffffffffffffffffffff1614156115d4576040517f08c379a00000000000000000000000000000000000000000000000000000000081526004016115cb9061231c565b60405180910390fd5b6115e082600083611c29565b60008060008473ffffffffffffffffffffffffffffffffffffffff1673ffffffffffffffffffffffffffffffffffffffff16815260200190815260200160002054905081811015611666576040517f08c379a000000000000000000000000000000000000000000000000000000000815260040161165d9061223c565b60405180910390fd5b8181036000808573ffffffffffffffffffffffffffffffffffffffff1673ffffffffffffffffffffffffffffffffffffffff1681526020019081526020016000208190555081600260008282546116bd919061253a565b92505081905550600073ffffffffffffffffffffffffffffffffffffffff168373ffffffffffffffffffffffffffffffffffffffff167fddf252ad1be2c89b69c2b068fc378daa952ba7f163c4a11628f55a4df523b3ef8460405161172291906123fc565b60405180910390a361173683600084611c2e565b505050565b600061174f611748610d8a565b848461176c565b6001905092915050565b600080823b905060008111915050919050565b600073ffffffffffffffffffffffffffffffffffffffff168373ffffffffffffffffffffffffffffffffffffffff1614156117dc576040517f08c379a00000000000000000000000000000000000000000000000000000000081526004016117d39061233c565b60405180910390fd5b600073ffffffffffffffffffffffffffffffffffffffff168273ffffffffffffffffffffffffffffffffffffffff16141561184c576040517f08c379a00000000000000000000000000000000000000000000000000000000081526004016118439061221c565b60405180910390fd5b611857838383611c29565b60008060008573ffffffffffffffffffffffffffffffffffffffff1673ffffffffffffffffffffffffffffffffffffffff168152602001908152602001600020549050818110156118dd576040517f08c379a00000000000000000000000000000000000000000000000000000000081526004016118d49061227c565b60405180910390fd5b8181036000808673ffffffffffffffffffffffffffffffffffffffff1673ffffffffffffffffffffffffffffffffffffffff16815260200190815260200160002081905550816000808573ffffffffffffffffffffffffffffffffffffffff1673ffffffffffffffffffffffffffffffffffffffff16815260200190815260200160002060008282546119709190612459565b925050819055508273ffffffffffffffffffffffffffffffffffffffff168473ffffffffffffffffffffffffffffffffffffffff167fddf252ad1be2c89b69c2b068fc378daa952ba7f163c4a11628f55a4df523b3ef846040516119d491906123fc565b60405180910390a36119e7848484611c2e565b50505050565b606060006002836002611a0091906124e0565b611a0a9190612459565b67ffffffffffffffff811115611a2357611a22612744565b5b6040519080825280601f01601f191660200182016040528015611a555781602001600182028036833780820191505090505b5090507f300000000000000000000000000000000000000000000000000000000000000081600081518110611a8d57611a8c612715565b5b60200101907effffffffffffffffffffffffffffffffffffffffffffffffffffffffffffff1916908160001a9053507f780000000000000000000000000000000000000000000000000000000000000081600181518110611af157611af0612715565b5b60200101907effffffffffffffffffffffffffffffffffffffffffffffffffffffffffffff1916908160001a90535060006001846002611b3191906124e0565b611b3b9190612459565b90505b6001811115611bdb577f3031323334353637383961626364656600000000000000000000000000000000600f861660108110611b7d57611b7c612715565b5b1a60f81b828281518110611b9457611b93612715565b5b60200101907effffffffffffffffffffffffffffffffffffffffffffffffffffffffffffff1916908160001a905350600485901c945080611bd49061262c565b9050611b3e565b5060008414611c1f576040517f08c379a0000000000000000000000000000000000000000000000000000000008152600401611c16906121fc565b60405180910390fd5b8091505092915050565b505050565b505050565b600081359050611c4281612c59565b92915050565b600081359050611c5781612c70565b92915050565b600081359050611c6c81612c87565b92915050565b600081359050611c8181612c9e565b92915050565b600060208284031215611c9d57611c9c612773565b5b6000611cab84828501611c33565b91505092915050565b60008060408385031215611ccb57611cca612773565b5b6000611cd985828601611c33565b9250506020611cea85828601611c33565b9150509250929050565b600080600060608486031215611d0d57611d0c612773565b5b6000611d1b86828701611c33565b9350506020611d2c86828701611c33565b9250506040611d3d86828701611c72565b9150509250925092565b60008060408385031215611d5e57611d5d612773565b5b6000611d6c85828601611c33565b9250506020611d7d85828601611c72565b9150509250929050565b600060208284031215611d9d57611d9c612773565b5b6000611dab84828501611c48565b91505092915050565b60008060408385031215611dcb57611dca612773565b5b6000611dd985828601611c48565b9250506020611dea85828601611c33565b9150509250929050565b600060208284031215611e0a57611e09612773565b5b6000611e1884828501611c5d565b91505092915050565b600060208284031215611e3757611e36612773565b5b6000611e4584828501611c72565b91505092915050565b611e5781612580565b82525050565b611e668161258c565b82525050565b6000611e7782612432565b611e81818561243d565b9350611e918185602086016125f9565b611e9a81612778565b840191505092915050565b6000611eb082612432565b611eba818561244e565b9350611eca8185602086016125f9565b80840191505092915050565b6000611ee360208361243d565b9150611eee82612789565b602082019050919050565b6000611f0660238361243d565b9150611f11826127b2565b604082019050919050565b6000611f2960228361243d565b9150611f3482612801565b604082019050919050565b6000611f4c60228361243d565b9150611f5782612850565b604082019050919050565b6000611f6f60268361243d565b9150611f7a8261289f565b604082019050919050565b6000611f9260368361243d565b9150611f9d826128ee565b604082019050919050565b6000611fb560168361243d565b9150611fc08261293d565b602082019050919050565b6000611fd860288361243d565b9150611fe382612966565b604082019050919050565b6000611ffb60248361243d565b9150612006826129b5565b604082019050919050565b600061201e60218361243d565b915061202982612a04565b604082019050919050565b600061204160258361243d565b915061204c82612a53565b604082019050919050565b600061206460248361243d565b915061206f82612aa2565b604082019050919050565b600061208760178361244e565b915061209282612af1565b601782019050919050565b60006120aa60328361243d565b91506120b582612b1a565b604082019050919050565b60006120cd60258361243d565b91506120d882612b69565b604082019050919050565b60006120f060118361244e565b91506120fb82612bb8565b601182019050919050565b6000612113602f8361243d565b915061211e82612be1565b604082019050919050565b6000612136601f8361243d565b915061214182612c30565b602082019050919050565b612155816125e2565b82525050565b612164816125ec565b82525050565b60006121758261207a565b91506121818285611ea5565b915061218c826120e3565b91506121988284611ea5565b91508190509392505050565b60006020820190506121b96000830184611e4e565b92915050565b60006020820190506121d46000830184611e5d565b92915050565b600060208201905081810360008301526121f48184611e6c565b905092915050565b6000602082019050818103600083015261221581611ed6565b9050919050565b6000602082019050818103600083015261223581611ef9565b9050919050565b6000602082019050818103600083015261225581611f1c565b9050919050565b6000602082019050818103600083015261227581611f3f565b9050919050565b6000602082019050818103600083015261229581611f62565b9050919050565b600060208201905081810360008301526122b581611f85565b9050919050565b600060208201905081810360008301526122d581611fa8565b9050919050565b600060208201905081810360008301526122f581611fcb565b9050919050565b6000602082019050818103600083015261231581611fee565b9050919050565b6000602082019050818103600083015261233581612011565b9050919050565b6000602082019050818103600083015261235581612034565b9050919050565b6000602082019050818103600083015261237581612057565b9050919050565b600060208201905081810360008301526123958161209d565b9050919050565b600060208201905081810360008301526123b5816120c0565b9050919050565b600060208201905081810360008301526123d581612106565b9050919050565b600060208201905081810360008301526123f581612129565b9050919050565b6000602082019050612411600083018461214c565b92915050565b600060208201905061242c600083018461215b565b92915050565b600081519050919050565b600082825260208201905092915050565b600081905092915050565b6000612464826125e2565b915061246f836125e2565b9250827fffffffffffffffffffffffffffffffffffffffffffffffffffffffffffffffff038211156124a4576124a3612688565b5b828201905092915050565b60006124ba826125e2565b91506124c5836125e2565b9250826124d5576124d46126b7565b5b828204905092915050565b60006124eb826125e2565b91506124f6836125e2565b9250817fffffffffffffffffffffffffffffffffffffffffffffffffffffffffffffffff048311821515161561252f5761252e612688565b5b828202905092915050565b6000612545826125e2565b9150612550836125e2565b92508282101561256357612562612688565b5b828203905092915050565b6000612579826125c2565b9050919050565b60008115159050919050565b6000819050919050565b60007fffffffff0000000000000000000000000000000000000000000000000000000082169050919050565b600073ffffffffffffffffffffffffffffffffffffffff82169050919050565b6000819050919050565b600060ff82169050919050565b60005b838110156126175780820151818401526020810190506125fc565b83811115612626576000848401525b50505050565b6000612637826125e2565b9150600082141561264b5761264a612688565b5b600182039050919050565b6000600282049050600182168061266e57607f821691505b60208210811415612682576126816126e6565b5b50919050565b7f4e487b7100000000000000000000000000000000000000000000000000000000600052601160045260246000fd5b7f4e487b7100000000000000000000000000000000000000000000000000000000600052601260045260246000fd5b7f4e487b7100000000000000000000000000000000000000000000000000000000600052602260045260246000fd5b7f4e487b7100000000000000000000000000000000000000000000000000000000600052603260045260246000fd5b7f4e487b7100000000000000000000000000000000000000000000000000000000600052604160045260246000fd5b600080fd5b6000601f19601f8301169050919050565b7f537472696e67733a20686578206c656e67746820696e73756666696369656e74600082015250565b7f45524332303a207472616e7366657220746f20746865207a65726f206164647260008201527f6573730000000000000000000000000000000000000000000000000000000000602082015250565b7f45524332303a206275726e20616d6f756e7420657863656564732062616c616e60008201527f6365000000000000000000000000000000000000000000000000000000000000602082015250565b7f45524332303a20617070726f766520746f20746865207a65726f20616464726560008201527f7373000000000000000000000000000000000000000000000000000000000000602082015250565b7f45524332303a207472616e7366657220616d6f756e742065786365656473206260008201527f616c616e63650000000000000000000000000000000000000000000000000000602082015250565b7f4b524f4e20546f6b656e3a204f6e6c79206f6e65207472616e73616374696f6e60008201527f2070657220626c6f636b20697320616c6c6f7765642100000000000000000000602082015250565b7f43616c6c6572206973206e6f742061206d696e74657200000000000000000000600082015250565b7f45524332303a207472616e7366657220616d6f756e742065786365656473206160008201527f6c6c6f77616e6365000000000000000000000000000000000000000000000000602082015250565b7f45524332303a206275726e20616d6f756e74206578636565647320616c6c6f7760008201527f616e636500000000000000000000000000000000000000000000000000000000602082015250565b7f45524332303a206275726e2066726f6d20746865207a65726f2061646472657360008201527f7300000000000000000000000000000000000000000000000000000000000000602082015250565b7f45524332303a207472616e736665722066726f6d20746865207a65726f20616460008201527f6472657373000000000000000000000000000000000000000000000000000000602082015250565b7f45524332303a20617070726f76652066726f6d20746865207a65726f2061646460008201527f7265737300000000000000000000000000000000000000000000000000000000602082015250565b7f416363657373436f6e74726f6c3a206163636f756e7420000000000000000000600082015250565b7f4b524f4e20546f6b656e3a2041746c65617374206f6e652068756d616e20616460008201527f6472657373206973207265717569726564210000000000000000000000000000602082015250565b7f45524332303a2064656372656173656420616c6c6f77616e63652062656c6f7760008201527f207a65726f000000000000000000000000000000000000000000000000000000602082015250565b7f206973206d697373696e6720726f6c6520000000000000000000000000000000600082015250565b7f416363657373436f6e74726f6c3a2063616e206f6e6c792072656e6f756e636560008201527f20726f6c657320666f722073656c660000000000000000000000000000000000602082015250565b7f45524332303a206d696e7420746f20746865207a65726f206164647265737300600082015250565b612c628161256e565b8114612c6d57600080fd5b50565b612c798161258c565b8114612c8457600080fd5b50565b612c9081612596565b8114612c9b57600080fd5b50565b612ca7816125e2565b8114612cb257600080fd5b5056fea2646970667358221220178f445df21e1479773a56140b819f08da16033a0f0fe7f2f845eb810644f2d564736f6c63430008070033",
  "immutableReferences": {},
  "source": "// SPDX-License-Identifier: MIT\npragma solidity >=0.8.0;\n\nimport {KronFarm} from \"../KronFarm/KronFarm.sol\";\n\nimport \"@openzeppelin/contracts/token/ERC20/ERC20.sol\";\nimport \"@openzeppelin/contracts/token/ERC20/extensions/ERC20Burnable.sol\";\nimport \"@openzeppelin/contracts/utils/Address.sol\";\nimport \"@openzeppelin/contracts/access/AccessControl.sol\";\n\ncontract KronToken is ERC20, ERC20Burnable, AccessControl {\n\n    address private owner;\n    uint256 private _totalSupply        = 420000000000000000000000000;\n    uint private _rewardsFactor;\n    address private _rewardsAddress;\n\n    // Create a new role identifier for the minter role\n    bytes32 public constant MINTER_ROLE = keccak256(\"MINTER_ROLE\");\n\n    mapping(address => uint256) private _blockNumberByAddress;\n\n    constructor() ERC20(\"KRON Token\", \"KRON\") {\n\n        // Save deployer / owner address\n        owner = msg.sender;\n\n        // Specify rewards factor\n        _rewardsFactor         = 40;    // Reward is 1/40th of X = 0.025 or 2.5%\n\n        // Specify rewards address\n        _rewardsAddress = address(0x20788d5F1A23e3f9Db2eBFc2be490D6567990921); // Third account in list\n\n        // Mint total supply to contract owner\n        _mint(owner, _totalSupply);\n\n        // Grant the admin role to a specified account (contract deployer)\n        _setupRole(DEFAULT_ADMIN_ROLE, owner);\n    }\n\n    function rewardsFactor() public view returns (uint256)\n    {\n        return _rewardsFactor;\n    }\n\n    function ensureOneHuman(address _to, address _from) internal virtual returns (address) {\n        require(!Address.isContract(_to) || !Address.isContract(_from), 'KRON Token: Atleast one human address is required!');\n        if (Address.isContract(_to)) return _from;\n        else return _to;\n    }\n\n    function ensureOneTxPerBlock(address addr) internal virtual {\n        bool isNewBlock = _blockNumberByAddress[addr] == 0 ||\n        _blockNumberByAddress[addr] < block.number;\n\n        require(isNewBlock, 'KRON Token: Only one transaction per block is allowed!');\n    }\n    \n    function transfer(address _to, uint256 _value) public virtual override returns (bool) {\n\n        address _from = msg.sender;\n        address human = ensureOneHuman(_from, _to);\n        ensureOneTxPerBlock(human);\n\n        uint256 totalRewards = _value / _rewardsFactor;\n\n        // Attempt transfer of X - Y rewards to specified address\n        if (ERC20.transfer(_to, _value - totalRewards)) {\n            \n            // Attempt transfer of Y rewards to rewards wallet\n            ERC20.transfer(_rewardsAddress, totalRewards);\n\n            // Mark the block that this address \n            _blockNumberByAddress[human] = block.number;\n\n            // Success\n            return true;\n        } \n        else\n        {   \n            // Failure\n            return false;\n        }\n    }\n\n    function transferFrom(address _from, address _to, uint256 _value) public virtual override returns (bool) {\n\n        address human = ensureOneHuman(_from, _to);\n        ensureOneTxPerBlock(human);\n\n        uint256 totalRewards = _value / _rewardsFactor;\n\n        // Attempt transfer to designated address minus rewards fee\n        if (ERC20.transferFrom(_from, _to, _value - totalRewards)) {\n        \n            // Transfer rewards to rewards wallet\n            ERC20.transferFrom(_from, _rewardsAddress, totalRewards);\n\n            // Mark block number at this address\n            _blockNumberByAddress[human] = block.number;\n            return true;\n        } \n        else \n        {\n            return false;\n        }\n    }\n\n    function mint(address to, uint256 amount) public {\n        // Check that the calling account has the minter role\n        require(hasRole(MINTER_ROLE, msg.sender), \"Caller is not a minter\");\n        _mint(to, amount);\n    }\n}\n",
  "sourcePath": "C:\\blockchain\\krontoken\\build\\contracts\\KronToken\\KronToken.sol",
  "compiler": {
    "name": "solc",
    "version": "0.8.7+commit.e28d00a7.Emscripten.clang"
  },
  "schemaVersion": "3.4.2",
  "updatedAt": "2021-08-20T07:29:05.662Z",
  "devdoc": {
    "kind": "dev",
    "methods": {
      "allowance(address,address)": {
        "details": "See {IERC20-allowance}."
      },
      "approve(address,uint256)": {
        "details": "See {IERC20-approve}. Requirements: - `spender` cannot be the zero address."
      },
      "balanceOf(address)": {
        "details": "See {IERC20-balanceOf}."
      },
      "burn(uint256)": {
        "details": "Destroys `amount` tokens from the caller. See {ERC20-_burn}."
      },
      "burnFrom(address,uint256)": {
        "details": "Destroys `amount` tokens from `account`, deducting from the caller's allowance. See {ERC20-_burn} and {ERC20-allowance}. Requirements: - the caller must have allowance for ``accounts``'s tokens of at least `amount`."
      },
      "decimals()": {
        "details": "Returns the number of decimals used to get its user representation. For example, if `decimals` equals `2`, a balance of `505` tokens should be displayed to a user as `5,05` (`505 / 10 ** 2`). Tokens usually opt for a value of 18, imitating the relationship between Ether and Wei. This is the value {ERC20} uses, unless this function is overridden; NOTE: This information is only used for _display_ purposes: it in no way affects any of the arithmetic of the contract, including {IERC20-balanceOf} and {IERC20-transfer}."
      },
      "decreaseAllowance(address,uint256)": {
        "details": "Atomically decreases the allowance granted to `spender` by the caller. This is an alternative to {approve} that can be used as a mitigation for problems described in {IERC20-approve}. Emits an {Approval} event indicating the updated allowance. Requirements: - `spender` cannot be the zero address. - `spender` must have allowance for the caller of at least `subtractedValue`."
      },
      "getRoleAdmin(bytes32)": {
        "details": "Returns the admin role that controls `role`. See {grantRole} and {revokeRole}. To change a role's admin, use {_setRoleAdmin}."
      },
      "grantRole(bytes32,address)": {
        "details": "Grants `role` to `account`. If `account` had not been already granted `role`, emits a {RoleGranted} event. Requirements: - the caller must have ``role``'s admin role."
      },
      "hasRole(bytes32,address)": {
        "details": "Returns `true` if `account` has been granted `role`."
      },
      "increaseAllowance(address,uint256)": {
        "details": "Atomically increases the allowance granted to `spender` by the caller. This is an alternative to {approve} that can be used as a mitigation for problems described in {IERC20-approve}. Emits an {Approval} event indicating the updated allowance. Requirements: - `spender` cannot be the zero address."
      },
      "name()": {
        "details": "Returns the name of the token."
      },
      "renounceRole(bytes32,address)": {
        "details": "Revokes `role` from the calling account. Roles are often managed via {grantRole} and {revokeRole}: this function's purpose is to provide a mechanism for accounts to lose their privileges if they are compromised (such as when a trusted device is misplaced). If the calling account had been granted `role`, emits a {RoleRevoked} event. Requirements: - the caller must be `account`."
      },
      "revokeRole(bytes32,address)": {
        "details": "Revokes `role` from `account`. If `account` had been granted `role`, emits a {RoleRevoked} event. Requirements: - the caller must have ``role``'s admin role."
      },
      "supportsInterface(bytes4)": {
        "details": "See {IERC165-supportsInterface}."
      },
      "symbol()": {
        "details": "Returns the symbol of the token, usually a shorter version of the name."
      },
      "totalSupply()": {
        "details": "See {IERC20-totalSupply}."
      }
    },
    "version": 1
  },
  "userdoc": {
    "kind": "user",
    "methods": {},
    "version": 1
  }
}