{
  "contractName": "KronFarm",
  "abi": [
    {
      "inputs": [
        {
          "internalType": "contract KronToken",
          "name": "_kronToken",
          "type": "address"
        },
        {
          "internalType": "contract XKronToken",
          "name": "_xkronToken",
          "type": "address"
        }
      ],
      "stateMutability": "nonpayable",
      "type": "constructor"
    },
    {
      "stateMutability": "payable",
      "type": "fallback",
      "payable": true
    },
    {
      "inputs": [],
      "name": "MINTER_ROLE",
      "outputs": [
        {
          "internalType": "bytes32",
          "name": "",
          "type": "bytes32"
        }
      ],
      "stateMutability": "view",
      "type": "function",
      "constant": true
    },
    {
      "inputs": [
        {
          "internalType": "address",
          "name": "",
          "type": "address"
        }
      ],
      "name": "hasStaked",
      "outputs": [
        {
          "internalType": "bool",
          "name": "",
          "type": "bool"
        }
      ],
      "stateMutability": "view",
      "type": "function",
      "constant": true
    },
    {
      "inputs": [
        {
          "internalType": "address",
          "name": "",
          "type": "address"
        }
      ],
      "name": "isStaking",
      "outputs": [
        {
          "internalType": "bool",
          "name": "",
          "type": "bool"
        }
      ],
      "stateMutability": "view",
      "type": "function",
      "constant": true
    },
    {
      "inputs": [],
      "name": "kronToken",
      "outputs": [
        {
          "internalType": "contract KronToken",
          "name": "",
          "type": "address"
        }
      ],
      "stateMutability": "view",
      "type": "function",
      "constant": true
    },
    {
      "inputs": [],
      "name": "name",
      "outputs": [
        {
          "internalType": "string",
          "name": "",
          "type": "string"
        }
      ],
      "stateMutability": "view",
      "type": "function",
      "constant": true
    },
    {
      "inputs": [],
      "name": "owner",
      "outputs": [
        {
          "internalType": "address",
          "name": "",
          "type": "address"
        }
      ],
      "stateMutability": "view",
      "type": "function",
      "constant": true
    },
    {
      "inputs": [
        {
          "internalType": "uint256",
          "name": "",
          "type": "uint256"
        }
      ],
      "name": "stakers",
      "outputs": [
        {
          "internalType": "address",
          "name": "",
          "type": "address"
        }
      ],
      "stateMutability": "view",
      "type": "function",
      "constant": true
    },
    {
      "inputs": [
        {
          "internalType": "address",
          "name": "",
          "type": "address"
        }
      ],
      "name": "stakingBalance",
      "outputs": [
        {
          "internalType": "uint256",
          "name": "",
          "type": "uint256"
        }
      ],
      "stateMutability": "view",
      "type": "function",
      "constant": true
    },
    {
      "inputs": [],
      "name": "totalStakedTokens",
      "outputs": [
        {
          "internalType": "uint256",
          "name": "",
          "type": "uint256"
        }
      ],
      "stateMutability": "view",
      "type": "function",
      "constant": true
    },
    {
      "inputs": [],
      "name": "xkronToken",
      "outputs": [
        {
          "internalType": "contract XKronToken",
          "name": "",
          "type": "address"
        }
      ],
      "stateMutability": "view",
      "type": "function",
      "constant": true
    },
    {
      "stateMutability": "payable",
      "type": "receive",
      "payable": true
    },
    {
      "inputs": [
        {
          "internalType": "uint256",
          "name": "_amount",
          "type": "uint256"
        }
      ],
      "name": "stakeTokens",
      "outputs": [],
      "stateMutability": "nonpayable",
      "type": "function"
    },
    {
      "inputs": [
        {
          "internalType": "uint256",
          "name": "_amount",
          "type": "uint256"
        }
      ],
      "name": "unstakeTokens",
      "outputs": [],
      "stateMutability": "nonpayable",
      "type": "function"
    },
    {
      "inputs": [],
      "name": "issueRewards",
      "outputs": [],
      "stateMutability": "nonpayable",
      "type": "function"
    }
  ],
  "bytecode": "0x60806040526040518060400160405280600981526020017f4b524f4e204661726d000000000000000000000000000000000000000000000081525060019080519060200190620000519291906200017e565b503480156200005f57600080fd5b506040516200206b3803806200206b83398181016040528101906200008591906200025c565b81600260006101000a81548173ffffffffffffffffffffffffffffffffffffffff021916908373ffffffffffffffffffffffffffffffffffffffff16021790555080600360006101000a81548173ffffffffffffffffffffffffffffffffffffffff021916908373ffffffffffffffffffffffffffffffffffffffff160217905550336000806101000a81548173ffffffffffffffffffffffffffffffffffffffff021916908373ffffffffffffffffffffffffffffffffffffffff160217905550600060058190555060036008819055506064600981905550600a8081905550611c206007819055504260068190555050506200039d565b8280546200018c90620002ff565b90600052602060002090601f016020900481019282620001b05760008555620001fc565b82601f10620001cb57805160ff1916838001178555620001fc565b82800160010185558215620001fc579182015b82811115620001fb578251825591602001919060010190620001de565b5b5090506200020b91906200020f565b5090565b5b808211156200022a57600081600090555060010162000210565b5090565b6000815190506200023f8162000369565b92915050565b600081519050620002568162000383565b92915050565b6000806040838503121562000276576200027562000364565b5b600062000286858286016200022e565b9250506020620002998582860162000245565b9150509250929050565b6000620002b082620002df565b9050919050565b6000620002c482620002a3565b9050919050565b6000620002d882620002a3565b9050919050565b600073ffffffffffffffffffffffffffffffffffffffff82169050919050565b600060028204905060018216806200031857607f821691505b602082108114156200032f576200032e62000335565b5b50919050565b7f4e487b7100000000000000000000000000000000000000000000000000000000600052602260045260246000fd5b600080fd5b6200037481620002b7565b81146200038057600080fd5b50565b6200038e81620002cb565b81146200039a57600080fd5b50565b611cbe80620003ad6000396000f3fe6080604052600436106100c65760003560e01c80638da5cb5b1161007f578063d0d733b111610059578063d0d733b114610270578063d53913931461029b578063f1b233f8146102c6578063fd5e6dd1146102f1576100cd565b80638da5cb5b146101f1578063b0370e0c1461021c578063c93c8f3414610233576100cd565b806306fdde03146100cf5780633ae73259146100fa57806345bc78ab14610125578063608e4dd0146101625780636f49712b1461018b5780637547c7a3146101c8576100cd565b366100cd57005b005b3480156100db57600080fd5b506100e461032e565b6040516100f1919061151d565b60405180910390f35b34801561010657600080fd5b5061010f6103bc565b60405161011c919061163f565b60405180910390f35b34801561013157600080fd5b5061014c6004803603810190610147919061123b565b6103c2565b604051610159919061163f565b60405180910390f35b34801561016e57600080fd5b5061018960048036038101906101849190611295565b6103da565b005b34801561019757600080fd5b506101b260048036038101906101ad919061123b565b6108c9565b6040516101bf91906114b1565b60405180910390f35b3480156101d457600080fd5b506101ef60048036038101906101ea9190611295565b6108e9565b005b3480156101fd57600080fd5b50610206610cb7565b604051610213919061146d565b60405180910390f35b34801561022857600080fd5b50610231610cdb565b005b34801561023f57600080fd5b5061025a6004803603810190610255919061123b565b611003565b60405161026791906114b1565b60405180910390f35b34801561027c57600080fd5b50610285611023565b6040516102929190611502565b60405180910390f35b3480156102a757600080fd5b506102b0611049565b6040516102bd91906114cc565b60405180910390f35b3480156102d257600080fd5b506102db61106d565b6040516102e891906114e7565b60405180910390f35b3480156102fd57600080fd5b5061031860048036038101906103139190611295565b611093565b604051610325919061146d565b60405180910390f35b6001805461033b90611858565b80601f016020809104026020016040519081016040528092919081815260200182805461036790611858565b80156103b45780601f10610389576101008083540402835291602001916103b4565b820191906000526020600020905b81548152906001019060200180831161039757829003601f168201915b505050505081565b60055481565b600b6020528060005260406000206000915090505481565b6000339050600015156103ec826110d2565b15151461042e576040517f08c379a00000000000000000000000000000000000000000000000000000000081526004016104259061157f565b60405180910390fd5b610437816110e5565b6000821161047a576040517f08c379a0000000000000000000000000000000000000000000000000000000008152600401610471906115ff565b60405180910390fd5b6000600b60003373ffffffffffffffffffffffffffffffffffffffff1673ffffffffffffffffffffffffffffffffffffffff16815260200190815260200160002054905080831115610501576040517f08c379a00000000000000000000000000000000000000000000000000000000081526004016104f89061155f565b60405180910390fd5b82600b60003373ffffffffffffffffffffffffffffffffffffffff1673ffffffffffffffffffffffffffffffffffffffff1681526020019081526020016000205461054c9190611757565b600b60003373ffffffffffffffffffffffffffffffffffffffff1673ffffffffffffffffffffffffffffffffffffffff1681526020019081526020016000208190555082600560008282546105a19190611757565b92505081905550600c60003373ffffffffffffffffffffffffffffffffffffffff1673ffffffffffffffffffffffffffffffffffffffff16815260200190815260200160002060009054906101000a900460ff16801561064057506000600b60003373ffffffffffffffffffffffffffffffffffffffff1673ffffffffffffffffffffffffffffffffffffffff16815260200190815260200160002054145b156106f6576000600c60003373ffffffffffffffffffffffffffffffffffffffff1673ffffffffffffffffffffffffffffffffffffffff16815260200190815260200160002060006101000a81548160ff0219169083151502179055506000600d60003373ffffffffffffffffffffffffffffffffffffffff1673ffffffffffffffffffffffffffffffffffffffff16815260200190815260200160002060006101000a81548160ff0219169083151502179055505b600360009054906101000a900473ffffffffffffffffffffffffffffffffffffffff1673ffffffffffffffffffffffffffffffffffffffff166379cc679033856040518363ffffffff1660e01b8152600401610753929190611488565b600060405180830381600087803b15801561076d57600080fd5b505af1158015610781573d6000803e3d6000fd5b50505050600260009054906101000a900473ffffffffffffffffffffffffffffffffffffffff1673ffffffffffffffffffffffffffffffffffffffff166340c10f1930856040518363ffffffff1660e01b81526004016107e2929190611488565b600060405180830381600087803b1580156107fc57600080fd5b505af1158015610810573d6000803e3d6000fd5b50505050600260009054906101000a900473ffffffffffffffffffffffffffffffffffffffff1673ffffffffffffffffffffffffffffffffffffffff1663a9059cbb33856040518363ffffffff1660e01b8152600401610871929190611488565b602060405180830381600087803b15801561088b57600080fd5b505af115801561089f573d6000803e3d6000fd5b505050506040513d601f19601f820116820180604052508101906108c39190611268565b50505050565b600d6020528060005260406000206000915054906101000a900460ff1681565b6000339050600015156108fb826110d2565b15151461093d576040517f08c379a00000000000000000000000000000000000000000000000000000000081526004016109349061159f565b60405180910390fd5b610946816110e5565b60008211610989576040517f08c379a0000000000000000000000000000000000000000000000000000000008152600401610980906115ff565b60405180910390fd5b81600b60003373ffffffffffffffffffffffffffffffffffffffff1673ffffffffffffffffffffffffffffffffffffffff168152602001908152602001600020546109d49190611676565b600b60003373ffffffffffffffffffffffffffffffffffffffff1673ffffffffffffffffffffffffffffffffffffffff168152602001908152602001600020819055508160056000828254610a299190611676565b92505081905550600c60003373ffffffffffffffffffffffffffffffffffffffff1673ffffffffffffffffffffffffffffffffffffffff16815260200190815260200160002060009054906101000a900460ff16610ae5576004339080600181540180825580915050600190039060005260206000200160009091909190916101000a81548173ffffffffffffffffffffffffffffffffffffffff021916908373ffffffffffffffffffffffffffffffffffffffff1602179055505b6001600c60003373ffffffffffffffffffffffffffffffffffffffff1673ffffffffffffffffffffffffffffffffffffffff16815260200190815260200160002060006101000a81548160ff0219169083151502179055506001600d60003373ffffffffffffffffffffffffffffffffffffffff1673ffffffffffffffffffffffffffffffffffffffff16815260200190815260200160002060006101000a81548160ff021916908315150217905550600260009054906101000a900473ffffffffffffffffffffffffffffffffffffffff1673ffffffffffffffffffffffffffffffffffffffff166379cc679033846040518363ffffffff1660e01b8152600401610bf2929190611488565b600060405180830381600087803b158015610c0c57600080fd5b505af1158015610c20573d6000803e3d6000fd5b50505050600360009054906101000a900473ffffffffffffffffffffffffffffffffffffffff1673ffffffffffffffffffffffffffffffffffffffff166340c10f1933846040518363ffffffff1660e01b8152600401610c81929190611488565b600060405180830381600087803b158015610c9b57600080fd5b505af1158015610caf573d6000803e3d6000fd5b505050505050565b60008054906101000a900473ffffffffffffffffffffffffffffffffffffffff1681565b600033905060001515610ced826110d2565b151514610d2f576040517f08c379a0000000000000000000000000000000000000000000000000000000008152600401610d269061153f565b60405180910390fd5b610d38816110e5565b600754600654610d489190611676565b4211610d89576040517f08c379a0000000000000000000000000000000000000000000000000000000008152600401610d80906115bf565b60405180910390fd5b426006819055506000600a5447610da091906116cc565b9050600060095482610db291906116cc565b90508082610dc09190611757565b9150600060085483610dd291906116cc565b905082471015610e17576040517f08c379a0000000000000000000000000000000000000000000000000000000008152600401610e0e9061161f565b60405180910390fd5b60005b600480549050811015610f4e57600060048281548110610e3d57610e3c611960565b5b9060005260206000200160009054906101000a900473ffffffffffffffffffffffffffffffffffffffff1690506000600b60008373ffffffffffffffffffffffffffffffffffffffff1673ffffffffffffffffffffffffffffffffffffffff1681526020019081526020016000205490506000811115610f3957600060055482610ec791906116cc565b90506000811115610f375760008582610ee091906116fd565b90508373ffffffffffffffffffffffffffffffffffffffff166108fc600283610f0991906116fd565b9081150290604051600060405180830381858888f19350505050158015610f34573d6000803e3d6000fd5b50505b505b50508080610f469061188a565b915050610e1a565b5060008054906101000a900473ffffffffffffffffffffffffffffffffffffffff1673ffffffffffffffffffffffffffffffffffffffff166108fc829081150290604051600060405180830381858888f19350505050158015610fb5573d6000803e3d6000fd5b503373ffffffffffffffffffffffffffffffffffffffff166108fc839081150290604051600060405180830381858888f19350505050158015610ffc573d6000803e3d6000fd5b5050505050565b600c6020528060005260406000206000915054906101000a900460ff1681565b600360009054906101000a900473ffffffffffffffffffffffffffffffffffffffff1681565b7f9f2df0fed2c77648de5860a4cc508cd0818c85b8b8a1ab4ceeef8d981c8956a681565b600260009054906101000a900473ffffffffffffffffffffffffffffffffffffffff1681565b600481815481106110a357600080fd5b906000526020600020016000915054906101000a900473ffffffffffffffffffffffffffffffffffffffff1681565b600080823b905060008111915050919050565b600080600e60008473ffffffffffffffffffffffffffffffffffffffff1673ffffffffffffffffffffffffffffffffffffffff168152602001908152602001600020541480611172575043600e60008473ffffffffffffffffffffffffffffffffffffffff1673ffffffffffffffffffffffffffffffffffffffff16815260200190815260200160002054105b9050806111b4576040517f08c379a00000000000000000000000000000000000000000000000000000000081526004016111ab906115df565b60405180910390fd5b43600e60008473ffffffffffffffffffffffffffffffffffffffff1673ffffffffffffffffffffffffffffffffffffffff168152602001908152602001600020819055505050565b60008135905061120b81611c43565b92915050565b60008151905061122081611c5a565b92915050565b60008135905061123581611c71565b92915050565b6000602082840312156112515761125061198f565b5b600061125f848285016111fc565b91505092915050565b60006020828403121561127e5761127d61198f565b5b600061128c84828501611211565b91505092915050565b6000602082840312156112ab576112aa61198f565b5b60006112b984828501611226565b91505092915050565b6112cb8161178b565b82525050565b6112da8161179d565b82525050565b6112e9816117a9565b82525050565b6112f8816117dd565b82525050565b611307816117ef565b82525050565b60006113188261165a565b6113228185611665565b9350611332818560208601611825565b61133b81611994565b840191505092915050565b6000611353603883611665565b915061135e826119a5565b604082019050919050565b6000611376602e83611665565b9150611381826119f4565b604082019050919050565b6000611399603083611665565b91506113a482611a43565b604082019050919050565b60006113bc602e83611665565b91506113c782611a92565b604082019050919050565b60006113df604283611665565b91506113ea82611ae1565b606082019050919050565b6000611402603583611665565b915061140d82611b56565b604082019050919050565b6000611425601283611665565b915061143082611ba5565b602082019050919050565b6000611448604e83611665565b915061145382611bce565b606082019050919050565b611467816117d3565b82525050565b600060208201905061148260008301846112c2565b92915050565b600060408201905061149d60008301856112c2565b6114aa602083018461145e565b9392505050565b60006020820190506114c660008301846112d1565b92915050565b60006020820190506114e160008301846112e0565b92915050565b60006020820190506114fc60008301846112ef565b92915050565b600060208201905061151760008301846112fe565b92915050565b60006020820190508181036000830152611537818461130d565b905092915050565b6000602082019050818103600083015261155881611346565b9050919050565b6000602082019050818103600083015261157881611369565b9050919050565b600060208201905081810360008301526115988161138c565b9050919050565b600060208201905081810360008301526115b8816113af565b9050919050565b600060208201905081810360008301526115d8816113d2565b9050919050565b600060208201905081810360008301526115f8816113f5565b9050919050565b6000602082019050818103600083015261161881611418565b9050919050565b600060208201905081810360008301526116388161143b565b9050919050565b6000602082019050611654600083018461145e565b92915050565b600081519050919050565b600082825260208201905092915050565b6000611681826117d3565b915061168c836117d3565b9250827fffffffffffffffffffffffffffffffffffffffffffffffffffffffffffffffff038211156116c1576116c06118d3565b5b828201905092915050565b60006116d7826117d3565b91506116e2836117d3565b9250826116f2576116f1611902565b5b828204905092915050565b6000611708826117d3565b9150611713836117d3565b9250817fffffffffffffffffffffffffffffffffffffffffffffffffffffffffffffffff048311821515161561174c5761174b6118d3565b5b828202905092915050565b6000611762826117d3565b915061176d836117d3565b9250828210156117805761177f6118d3565b5b828203905092915050565b6000611796826117b3565b9050919050565b60008115159050919050565b6000819050919050565b600073ffffffffffffffffffffffffffffffffffffffff82169050919050565b6000819050919050565b60006117e882611801565b9050919050565b60006117fa82611801565b9050919050565b600061180c82611813565b9050919050565b600061181e826117b3565b9050919050565b60005b83811015611843578082015181840152602081019050611828565b83811115611852576000848401525b50505050565b6000600282049050600182168061187057607f821691505b6020821081141561188457611883611931565b5b50919050565b6000611895826117d3565b91507fffffffffffffffffffffffffffffffffffffffffffffffffffffffffffffffff8214156118c8576118c76118d3565b5b600182019050919050565b7f4e487b7100000000000000000000000000000000000000000000000000000000600052601160045260246000fd5b7f4e487b7100000000000000000000000000000000000000000000000000000000600052601260045260246000fd5b7f4e487b7100000000000000000000000000000000000000000000000000000000600052602260045260246000fd5b7f4e487b7100000000000000000000000000000000000000000000000000000000600052603260045260246000fd5b600080fd5b6000601f19601f8301169050919050565b7f4b524f4e204661726d3a20436f6e74726163747320617265206e6f7420616c6c60008201527f6f77656420746f2070726f636573732072657761726473210000000000000000602082015250565b7f416d6f756e742063616e6e6f742062652067726561746572207468616e20737460008201527f616b65642062616c616e63656421000000000000000000000000000000000000602082015250565b7f4b524f4e204661726d3a20436f6e74726163747320617265206e6f7420616c6c60008201527f6f77656420746f20756e7374616b652100000000000000000000000000000000602082015250565b7f4b524f4e204661726d3a20436f6e74726163747320617265206e6f7420616c6c60008201527f6f77656420746f207374616b6521000000000000000000000000000000000000602082015250565b7f4b524f4e204661726d20636f6e747261637420726577617264732064656e696560008201527f642120436f6e74726163742063616c6c206f63637572656420746f6f20736f6f60208201527f6e21000000000000000000000000000000000000000000000000000000000000604082015250565b7f4b524f4e204661726d3a204f6e6c79206f6e65207472616e73616374696f6e2060008201527f70657220626c6f636b20697320616c6c6f776564210000000000000000000000602082015250565b7f416d6f756e742063616e6e6f7420626520300000000000000000000000000000600082015250565b7f4b524f4e204661726d20636f6e747261637420646f6573206e6f74206861766560008201527f2073756666696369656e74206574682062616c616e636520746f20646973747260208201527f6962757465207265776172647321000000000000000000000000000000000000604082015250565b611c4c8161178b565b8114611c5757600080fd5b50565b611c638161179d565b8114611c6e57600080fd5b50565b611c7a816117d3565b8114611c8557600080fd5b5056fea26469706673582212203562bfa93b66dacd0de7d6b5eeb38c4d99381b06214e25273a147a3bd5163e3b64736f6c63430008070033",
  "immutableReferences": {},
  "source": "// SPDX-License-Identifier: MIT\r\npragma solidity >=0.8.0;\r\n\r\n// Import KronToken\r\nimport {KronToken} from \"../KronToken/KronToken.sol\";\r\nimport {XKronToken} from \"./XKronToken.sol\";\r\n\r\n// Import Address Utility\r\nimport \"@openzeppelin/contracts/utils/Address.sol\";\r\n\r\n// Contact\r\ncontract KronFarm {\r\n\r\n    // Owner\r\n    address public owner;\r\n\r\n    // Name of Contract\r\n    string public name = \"KRON Farm\";\r\n\r\n    // Store instance of Kron Token\r\n    KronToken public kronToken;\r\n\r\n    // Store instance xKron Token\r\n    XKronToken public xkronToken;\r\n\r\n    // Array of stakers\r\n    address[] public stakers;\r\n    uint256 public totalStakedTokens;\r\n\r\n    // Last reward block\r\n    uint256 private lastRewardBlockTimeStamp;\r\n\r\n    // Reward Throttle \r\n    uint256 private _ethRewardThrottle;\r\n\r\n    // ETH Node Rewards Rates\r\n    uint256 private _ethNodeProfit;\r\n    uint256 private _ethNodeProfitRewardProcessingGasBounty;\r\n    uint256 private _ethNodeProfitDripRate;\r\n\r\n    // Staking balance mapping\r\n    mapping(address => uint256) public stakingBalance;\r\n\r\n    // Has Staked ? mapping\r\n    mapping(address => bool) public hasStaked;\r\n\r\n    // Is Staking ? mapping\r\n    mapping(address => bool) public isStaking;\r\n\r\n    // Block Number -> Address Map\r\n    mapping(address => uint256) private _blockNumberByAddress;\r\n\r\n    // Minter Role\r\n    bytes32 public constant MINTER_ROLE = keccak256(\"MINTER_ROLE\");\r\n\r\n    // Constructor\r\n    constructor(KronToken _kronToken, XKronToken _xkronToken) {\r\n\r\n        kronToken = _kronToken;\r\n        xkronToken = _xkronToken;\r\n        owner = msg.sender;\r\n\r\n        totalStakedTokens           = 0;\r\n        _ethNodeProfit              = 3;                // 66% of KRON Farm Contract's to xKRON holders, 33% to DEV\r\n        _ethNodeProfitRewardProcessingGasBounty = 100;  // 1% of KRON Farm Contract's ETH Balance\r\n        _ethNodeProfitDripRate      = 10;               //  10% of total profit in this contract's ETH ledger will be processed\r\n\r\n        _ethRewardThrottle          = 2 hours;        // 0 second reward throttle\r\n        lastRewardBlockTimeStamp    = block.timestamp;\r\n    }\r\n\r\n    // Will receive any eth sent to the contract\r\n    receive() external payable {}\r\n\r\n    // Will be called when no other function matches, not even the receive function\r\n    fallback() external payable {}\r\n\r\n    // Ensures only one tx per block per address\r\n    function ensureOneTxPerBlock(address addr) internal virtual {\r\n        bool isNewBlock = _blockNumberByAddress[addr] == 0 ||\r\n        _blockNumberByAddress[addr] < block.number;\r\n\r\n        require(isNewBlock, 'KRON Farm: Only one transaction per block is allowed!');\r\n\r\n        _blockNumberByAddress[addr] = block.number;\r\n    }\r\n\r\n    // 1. Stake Tokens, Allows investors to stake tokens to earn rewards\r\n    function stakeTokens(uint256 _amount) public {\r\n\r\n        address _from = msg.sender;\r\n        require(Address.isContract(_from) == false, \"KRON Farm: Contracts are not allowed to stake!\");\r\n        ensureOneTxPerBlock(_from);\r\n\r\n        // Require _amount to be > 0\r\n        require(_amount > 0, \"Amount cannot be 0\");\r\n\r\n        // Update staking balance\r\n        stakingBalance[msg.sender] = stakingBalance[msg.sender] + _amount;\r\n        totalStakedTokens += _amount;\r\n\r\n        // Add user to stakers array only if they haven't staked already\r\n        if (!hasStaked[msg.sender]) {\r\n            stakers.push(msg.sender);\r\n        }\r\n\r\n        // Update staking status\r\n        hasStaked[msg.sender] = true;\r\n        isStaking[msg.sender] = true;\r\n                \r\n        // Transfer KRON Tokens to dev wallet for staking\r\n        kronToken.burnFrom(msg.sender, _amount);\r\n\r\n        // Transfer xKRON Tokens from dev wallet to investor for holding\r\n        xkronToken.mint(msg.sender, _amount);\r\n    }\r\n\r\n    // 2. Unstaking Tokens, Allows investors to unstake their tokens\r\n    function unstakeTokens(uint256 _amount) public {\r\n\r\n        address _from = msg.sender;\r\n        require(Address.isContract(_from) == false, \"KRON Farm: Contracts are not allowed to unstake!\");\r\n        ensureOneTxPerBlock(_from);\r\n\r\n        require(_amount > 0, \"Amount cannot be 0\");\r\n\r\n        // Current balance\r\n        uint256 balance = stakingBalance[msg.sender];\r\n\r\n        // Require amount <= balance\r\n        require(_amount <= balance, \"Amount cannot be greater than staked balanced!\");\r\n\r\n        // Update the staking balance\r\n        stakingBalance[msg.sender] = stakingBalance[msg.sender] - _amount;\r\n        totalStakedTokens -= _amount;\r\n\r\n        // Remove user from stakers array if their balance = 0\r\n        if (hasStaked[msg.sender] && stakingBalance[msg.sender] == 0) {\r\n            \r\n            // Update staking status\r\n            hasStaked[msg.sender] = false;\r\n            isStaking[msg.sender] = false;\r\n        }\r\n\r\n        // Burn xKRON from investors wallet\r\n        xkronToken.burnFrom(msg.sender, _amount);\r\n\r\n        // Mint KRON to investors wallet\r\n        kronToken.mint(address(this), _amount);\r\n        kronToken.transfer(msg.sender, _amount);\r\n    }\r\n\r\n    // 3. Issuing Rewards, Allows investors to claim their interest rewards\r\n    function issueRewards() public {\r\n        \r\n        address _from = msg.sender;\r\n        require(Address.isContract(_from) == false, \"KRON Farm: Contracts are not allowed to process rewards!\");\r\n        ensureOneTxPerBlock(_from);\r\n\r\n        // Prevent contract calls to this function when the current block timestamp isn't greater than the last contract call + our throttle limitation\r\n        require(block.timestamp > lastRewardBlockTimeStamp + _ethRewardThrottle, \"KRON Farm contract rewards denied! Contract call occured too soon!\");\r\n\r\n        // Update our last reward block timestamp state variable\r\n        lastRewardBlockTimeStamp = block.timestamp;\r\n\r\n        uint256 totalProfits = address(this).balance / _ethNodeProfitDripRate; // ETH balance of contract\r\n\r\n        uint256 bounty = totalProfits / _ethNodeProfitRewardProcessingGasBounty; // 1% of total profits\r\n        totalProfits -= bounty; // correct the totalProfits variable for further processing\r\n\r\n        uint256 thirdProfits = totalProfits / _ethNodeProfit;\r\n\r\n        // The farm contract must have enough ETH to distribute rewards\r\n        require(address(this).balance >= totalProfits, \"KRON Farm contract does not have sufficient eth balance to distribute rewards!\");\r\n\r\n        // Issue tokens to stakers (xKRON Rewards)\r\n        for (uint256 i=0; i < stakers.length; i++) {\r\n\r\n            address recipient = stakers[i];\r\n            uint256 balance = stakingBalance[recipient];\r\n\r\n            if (balance > 0) {\r\n\r\n                uint256 share = balance / totalStakedTokens;\r\n\r\n                if (share > 0) {\r\n\r\n                    // Pay the staker their fair share of ETH from the ETH node profits (66%)\r\n                    uint256 stakerShare = share * thirdProfits;\r\n                    payable(recipient).transfer(stakerShare * 2);\r\n                }\r\n            }\r\n        }\r\n\r\n        // Distribute to Dev team\r\n        payable(owner).transfer(thirdProfits);\r\n\r\n        // Distribute bounty to contract caller (rewards processor / good samaritan)\r\n        payable(msg.sender).transfer(bounty);\r\n    }\r\n}",
  "sourcePath": "C:\\blockchain\\krontoken\\build\\contracts\\KronFarm\\KronFarm.sol",
  "compiler": {
    "name": "solc",
    "version": "0.8.7+commit.e28d00a7.Emscripten.clang"
  },
  "schemaVersion": "3.4.3",
  "updatedAt": "2021-09-04T01:12:54.846Z",
  "networkType": "ethereum",
  "devdoc": {
    "kind": "dev",
    "methods": {},
    "version": 1
  },
  "userdoc": {
    "kind": "user",
    "methods": {},
    "version": 1
  }
}