{
  "contractName": "KronFarm",
  "abi": [
    {
      "inputs": [
        {
          "internalType": "contract KronToken",
          "name": "_kronToken",
          "type": "address"
        },
        {
          "internalType": "contract XKronToken",
          "name": "_xkronToken",
          "type": "address"
        }
      ],
      "stateMutability": "nonpayable",
      "type": "constructor"
    },
    {
      "stateMutability": "payable",
      "type": "fallback"
    },
    {
      "inputs": [],
      "name": "MINTER_ROLE",
      "outputs": [
        {
          "internalType": "bytes32",
          "name": "",
          "type": "bytes32"
        }
      ],
      "stateMutability": "view",
      "type": "function"
    },
    {
      "inputs": [
        {
          "internalType": "address",
          "name": "",
          "type": "address"
        }
      ],
      "name": "hasStaked",
      "outputs": [
        {
          "internalType": "bool",
          "name": "",
          "type": "bool"
        }
      ],
      "stateMutability": "view",
      "type": "function"
    },
    {
      "inputs": [
        {
          "internalType": "address",
          "name": "",
          "type": "address"
        }
      ],
      "name": "isStaking",
      "outputs": [
        {
          "internalType": "bool",
          "name": "",
          "type": "bool"
        }
      ],
      "stateMutability": "view",
      "type": "function"
    },
    {
      "inputs": [],
      "name": "kronToken",
      "outputs": [
        {
          "internalType": "contract KronToken",
          "name": "",
          "type": "address"
        }
      ],
      "stateMutability": "view",
      "type": "function"
    },
    {
      "inputs": [],
      "name": "name",
      "outputs": [
        {
          "internalType": "string",
          "name": "",
          "type": "string"
        }
      ],
      "stateMutability": "view",
      "type": "function"
    },
    {
      "inputs": [],
      "name": "owner",
      "outputs": [
        {
          "internalType": "address",
          "name": "",
          "type": "address"
        }
      ],
      "stateMutability": "view",
      "type": "function"
    },
    {
      "inputs": [
        {
          "internalType": "uint256",
          "name": "",
          "type": "uint256"
        }
      ],
      "name": "stakers",
      "outputs": [
        {
          "internalType": "address",
          "name": "",
          "type": "address"
        }
      ],
      "stateMutability": "view",
      "type": "function"
    },
    {
      "inputs": [
        {
          "internalType": "address",
          "name": "",
          "type": "address"
        }
      ],
      "name": "stakingBalance",
      "outputs": [
        {
          "internalType": "uint256",
          "name": "",
          "type": "uint256"
        }
      ],
      "stateMutability": "view",
      "type": "function"
    },
    {
      "inputs": [],
      "name": "totalStakedTokens",
      "outputs": [
        {
          "internalType": "uint256",
          "name": "",
          "type": "uint256"
        }
      ],
      "stateMutability": "view",
      "type": "function"
    },
    {
      "inputs": [],
      "name": "xkronToken",
      "outputs": [
        {
          "internalType": "contract XKronToken",
          "name": "",
          "type": "address"
        }
      ],
      "stateMutability": "view",
      "type": "function"
    },
    {
      "stateMutability": "payable",
      "type": "receive"
    },
    {
      "inputs": [
        {
          "internalType": "uint256",
          "name": "_amount",
          "type": "uint256"
        }
      ],
      "name": "stakeTokens",
      "outputs": [],
      "stateMutability": "nonpayable",
      "type": "function"
    },
    {
      "inputs": [
        {
          "internalType": "uint256",
          "name": "_amount",
          "type": "uint256"
        }
      ],
      "name": "unstakeTokens",
      "outputs": [],
      "stateMutability": "nonpayable",
      "type": "function"
    },
    {
      "inputs": [],
      "name": "issueRewards",
      "outputs": [],
      "stateMutability": "nonpayable",
      "type": "function"
    }
  ],
  "bytecode": "0x60806040526040518060400160405280600981526020017f4b524f4e204661726d000000000000000000000000000000000000000000000081525060019080519060200190620000519291906200017d565b503480156200005f57600080fd5b50604051620020703803806200207083398181016040528101906200008591906200025b565b81600260006101000a81548173ffffffffffffffffffffffffffffffffffffffff021916908373ffffffffffffffffffffffffffffffffffffffff16021790555080600360006101000a81548173ffffffffffffffffffffffffffffffffffffffff021916908373ffffffffffffffffffffffffffffffffffffffff160217905550336000806101000a81548173ffffffffffffffffffffffffffffffffffffffff021916908373ffffffffffffffffffffffffffffffffffffffff160217905550600060058190555060036008819055506064600981905550600a808190555060006007819055504260068190555050506200039c565b8280546200018b90620002fe565b90600052602060002090601f016020900481019282620001af5760008555620001fb565b82601f10620001ca57805160ff1916838001178555620001fb565b82800160010185558215620001fb579182015b82811115620001fa578251825591602001919060010190620001dd565b5b5090506200020a91906200020e565b5090565b5b80821115620002295760008160009055506001016200020f565b5090565b6000815190506200023e8162000368565b92915050565b600081519050620002558162000382565b92915050565b6000806040838503121562000275576200027462000363565b5b600062000285858286016200022d565b9250506020620002988582860162000244565b9150509250929050565b6000620002af82620002de565b9050919050565b6000620002c382620002a2565b9050919050565b6000620002d782620002a2565b9050919050565b600073ffffffffffffffffffffffffffffffffffffffff82169050919050565b600060028204905060018216806200031757607f821691505b602082108114156200032e576200032d62000334565b5b50919050565b7f4e487b7100000000000000000000000000000000000000000000000000000000600052602260045260246000fd5b600080fd5b6200037381620002b6565b81146200037f57600080fd5b50565b6200038d81620002ca565b81146200039957600080fd5b50565b611cc480620003ac6000396000f3fe6080604052600436106100c65760003560e01c80638da5cb5b1161007f578063d0d733b111610059578063d0d733b114610270578063d53913931461029b578063f1b233f8146102c6578063fd5e6dd1146102f1576100cd565b80638da5cb5b146101f1578063b0370e0c1461021c578063c93c8f3414610233576100cd565b806306fdde03146100cf5780633ae73259146100fa57806345bc78ab14610125578063608e4dd0146101625780636f49712b1461018b5780637547c7a3146101c8576100cd565b366100cd57005b005b3480156100db57600080fd5b506100e461032e565b6040516100f19190611523565b60405180910390f35b34801561010657600080fd5b5061010f6103bc565b60405161011c9190611645565b60405180910390f35b34801561013157600080fd5b5061014c60048036038101906101479190611241565b6103c2565b6040516101599190611645565b60405180910390f35b34801561016e57600080fd5b506101896004803603810190610184919061129b565b6103da565b005b34801561019757600080fd5b506101b260048036038101906101ad9190611241565b6108c9565b6040516101bf91906114b7565b60405180910390f35b3480156101d457600080fd5b506101ef60048036038101906101ea919061129b565b6108e9565b005b3480156101fd57600080fd5b50610206610cb7565b6040516102139190611473565b60405180910390f35b34801561022857600080fd5b50610231610cdb565b005b34801561023f57600080fd5b5061025a60048036038101906102559190611241565b611009565b60405161026791906114b7565b60405180910390f35b34801561027c57600080fd5b50610285611029565b6040516102929190611508565b60405180910390f35b3480156102a757600080fd5b506102b061104f565b6040516102bd91906114d2565b60405180910390f35b3480156102d257600080fd5b506102db611073565b6040516102e891906114ed565b60405180910390f35b3480156102fd57600080fd5b506103186004803603810190610313919061129b565b611099565b6040516103259190611473565b60405180910390f35b6001805461033b9061185e565b80601f01602080910402602001604051908101604052809291908181526020018280546103679061185e565b80156103b45780601f10610389576101008083540402835291602001916103b4565b820191906000526020600020905b81548152906001019060200180831161039757829003601f168201915b505050505081565b60055481565b600c6020528060005260406000206000915090505481565b6000339050600015156103ec826110d8565b15151461042e576040517f08c379a000000000000000000000000000000000000000000000000000000000815260040161042590611585565b60405180910390fd5b610437816110eb565b6000821161047a576040517f08c379a000000000000000000000000000000000000000000000000000000000815260040161047190611605565b60405180910390fd5b6000600c60003373ffffffffffffffffffffffffffffffffffffffff1673ffffffffffffffffffffffffffffffffffffffff16815260200190815260200160002054905080831115610501576040517f08c379a00000000000000000000000000000000000000000000000000000000081526004016104f890611565565b60405180910390fd5b600360009054906101000a900473ffffffffffffffffffffffffffffffffffffffff1673ffffffffffffffffffffffffffffffffffffffff166379cc679033856040518363ffffffff1660e01b815260040161055e92919061148e565b600060405180830381600087803b15801561057857600080fd5b505af115801561058c573d6000803e3d6000fd5b50505050600260009054906101000a900473ffffffffffffffffffffffffffffffffffffffff1673ffffffffffffffffffffffffffffffffffffffff166340c10f1930856040518363ffffffff1660e01b81526004016105ed92919061148e565b600060405180830381600087803b15801561060757600080fd5b505af115801561061b573d6000803e3d6000fd5b50505050600260009054906101000a900473ffffffffffffffffffffffffffffffffffffffff1673ffffffffffffffffffffffffffffffffffffffff1663a9059cbb33856040518363ffffffff1660e01b815260040161067c92919061148e565b602060405180830381600087803b15801561069657600080fd5b505af11580156106aa573d6000803e3d6000fd5b505050506040513d601f19601f820116820180604052508101906106ce919061126e565b5082600c60003373ffffffffffffffffffffffffffffffffffffffff1673ffffffffffffffffffffffffffffffffffffffff1681526020019081526020016000205461071a919061175d565b600c60003373ffffffffffffffffffffffffffffffffffffffff1673ffffffffffffffffffffffffffffffffffffffff16815260200190815260200160002081905550826005600082825461076f919061175d565b92505081905550600d60003373ffffffffffffffffffffffffffffffffffffffff1673ffffffffffffffffffffffffffffffffffffffff16815260200190815260200160002060009054906101000a900460ff16801561080e57506000600c60003373ffffffffffffffffffffffffffffffffffffffff1673ffffffffffffffffffffffffffffffffffffffff16815260200190815260200160002054145b156108c4576000600d60003373ffffffffffffffffffffffffffffffffffffffff1673ffffffffffffffffffffffffffffffffffffffff16815260200190815260200160002060006101000a81548160ff0219169083151502179055506000600e60003373ffffffffffffffffffffffffffffffffffffffff1673ffffffffffffffffffffffffffffffffffffffff16815260200190815260200160002060006101000a81548160ff0219169083151502179055505b505050565b600e6020528060005260406000206000915054906101000a900460ff1681565b6000339050600015156108fb826110d8565b15151461093d576040517f08c379a0000000000000000000000000000000000000000000000000000000008152600401610934906115a5565b60405180910390fd5b610946816110eb565b60008211610989576040517f08c379a000000000000000000000000000000000000000000000000000000000815260040161098090611605565b60405180910390fd5b600260009054906101000a900473ffffffffffffffffffffffffffffffffffffffff1673ffffffffffffffffffffffffffffffffffffffff166379cc679033846040518363ffffffff1660e01b81526004016109e692919061148e565b600060405180830381600087803b158015610a0057600080fd5b505af1158015610a14573d6000803e3d6000fd5b50505050600360009054906101000a900473ffffffffffffffffffffffffffffffffffffffff1673ffffffffffffffffffffffffffffffffffffffff166340c10f1933846040518363ffffffff1660e01b8152600401610a7592919061148e565b600060405180830381600087803b158015610a8f57600080fd5b505af1158015610aa3573d6000803e3d6000fd5b5050505081600c60003373ffffffffffffffffffffffffffffffffffffffff1673ffffffffffffffffffffffffffffffffffffffff16815260200190815260200160002054610af2919061167c565b600c60003373ffffffffffffffffffffffffffffffffffffffff1673ffffffffffffffffffffffffffffffffffffffff168152602001908152602001600020819055508160056000828254610b47919061167c565b92505081905550600d60003373ffffffffffffffffffffffffffffffffffffffff1673ffffffffffffffffffffffffffffffffffffffff16815260200190815260200160002060009054906101000a900460ff16610c03576004339080600181540180825580915050600190039060005260206000200160009091909190916101000a81548173ffffffffffffffffffffffffffffffffffffffff021916908373ffffffffffffffffffffffffffffffffffffffff1602179055505b6001600d60003373ffffffffffffffffffffffffffffffffffffffff1673ffffffffffffffffffffffffffffffffffffffff16815260200190815260200160002060006101000a81548160ff0219169083151502179055506001600e60003373ffffffffffffffffffffffffffffffffffffffff1673ffffffffffffffffffffffffffffffffffffffff16815260200190815260200160002060006101000a81548160ff0219169083151502179055505050565b60008054906101000a900473ffffffffffffffffffffffffffffffffffffffff1681565b600033905060001515610ced826110d8565b151514610d2f576040517f08c379a0000000000000000000000000000000000000000000000000000000008152600401610d2690611545565b60405180910390fd5b610d38816110eb565b600754600654610d48919061167c565b4211610d89576040517f08c379a0000000000000000000000000000000000000000000000000000000008152600401610d80906115c5565b60405180910390fd5b426006819055506000600a5447610da091906116d2565b9050600060095482610db291906116d2565b90508082610dc0919061175d565b9150600060085483610dd291906116d2565b905082471015610e17576040517f08c379a0000000000000000000000000000000000000000000000000000000008152600401610e0e90611625565b60405180910390fd5b60005b600480549050811015610f5457600060048281548110610e3d57610e3c611966565b5b9060005260206000200160009054906101000a900473ffffffffffffffffffffffffffffffffffffffff1690506000600c60008373ffffffffffffffffffffffffffffffffffffffff1673ffffffffffffffffffffffffffffffffffffffff1681526020019081526020016000205490506000811115610f3f57600060055482610ec791906116d2565b90506000811115610f3d578273ffffffffffffffffffffffffffffffffffffffff166108fc6002876001610efb91906116d2565b84610f0691906116d2565b610f109190611703565b9081150290604051600060405180830381858888f19350505050158015610f3b573d6000803e3d6000fd5b505b505b50508080610f4c90611890565b915050610e1a565b5060008054906101000a900473ffffffffffffffffffffffffffffffffffffffff1673ffffffffffffffffffffffffffffffffffffffff166108fc829081150290604051600060405180830381858888f19350505050158015610fbb573d6000803e3d6000fd5b503373ffffffffffffffffffffffffffffffffffffffff166108fc839081150290604051600060405180830381858888f19350505050158015611002573d6000803e3d6000fd5b5050505050565b600d6020528060005260406000206000915054906101000a900460ff1681565b600360009054906101000a900473ffffffffffffffffffffffffffffffffffffffff1681565b7f9f2df0fed2c77648de5860a4cc508cd0818c85b8b8a1ab4ceeef8d981c8956a681565b600260009054906101000a900473ffffffffffffffffffffffffffffffffffffffff1681565b600481815481106110a957600080fd5b906000526020600020016000915054906101000a900473ffffffffffffffffffffffffffffffffffffffff1681565b600080823b905060008111915050919050565b600080600f60008473ffffffffffffffffffffffffffffffffffffffff1673ffffffffffffffffffffffffffffffffffffffff168152602001908152602001600020541480611178575043600f60008473ffffffffffffffffffffffffffffffffffffffff1673ffffffffffffffffffffffffffffffffffffffff16815260200190815260200160002054105b9050806111ba576040517f08c379a00000000000000000000000000000000000000000000000000000000081526004016111b1906115e5565b60405180910390fd5b43600f60008473ffffffffffffffffffffffffffffffffffffffff1673ffffffffffffffffffffffffffffffffffffffff168152602001908152602001600020819055505050565b60008135905061121181611c49565b92915050565b60008151905061122681611c60565b92915050565b60008135905061123b81611c77565b92915050565b60006020828403121561125757611256611995565b5b600061126584828501611202565b91505092915050565b60006020828403121561128457611283611995565b5b600061129284828501611217565b91505092915050565b6000602082840312156112b1576112b0611995565b5b60006112bf8482850161122c565b91505092915050565b6112d181611791565b82525050565b6112e0816117a3565b82525050565b6112ef816117af565b82525050565b6112fe816117e3565b82525050565b61130d816117f5565b82525050565b600061131e82611660565b611328818561166b565b935061133881856020860161182b565b6113418161199a565b840191505092915050565b600061135960388361166b565b9150611364826119ab565b604082019050919050565b600061137c602e8361166b565b9150611387826119fa565b604082019050919050565b600061139f60308361166b565b91506113aa82611a49565b604082019050919050565b60006113c2602e8361166b565b91506113cd82611a98565b604082019050919050565b60006113e560428361166b565b91506113f082611ae7565b606082019050919050565b600061140860358361166b565b915061141382611b5c565b604082019050919050565b600061142b60128361166b565b915061143682611bab565b602082019050919050565b600061144e604e8361166b565b915061145982611bd4565b606082019050919050565b61146d816117d9565b82525050565b600060208201905061148860008301846112c8565b92915050565b60006040820190506114a360008301856112c8565b6114b06020830184611464565b9392505050565b60006020820190506114cc60008301846112d7565b92915050565b60006020820190506114e760008301846112e6565b92915050565b600060208201905061150260008301846112f5565b92915050565b600060208201905061151d6000830184611304565b92915050565b6000602082019050818103600083015261153d8184611313565b905092915050565b6000602082019050818103600083015261155e8161134c565b9050919050565b6000602082019050818103600083015261157e8161136f565b9050919050565b6000602082019050818103600083015261159e81611392565b9050919050565b600060208201905081810360008301526115be816113b5565b9050919050565b600060208201905081810360008301526115de816113d8565b9050919050565b600060208201905081810360008301526115fe816113fb565b9050919050565b6000602082019050818103600083015261161e8161141e565b9050919050565b6000602082019050818103600083015261163e81611441565b9050919050565b600060208201905061165a6000830184611464565b92915050565b600081519050919050565b600082825260208201905092915050565b6000611687826117d9565b9150611692836117d9565b9250827fffffffffffffffffffffffffffffffffffffffffffffffffffffffffffffffff038211156116c7576116c66118d9565b5b828201905092915050565b60006116dd826117d9565b91506116e8836117d9565b9250826116f8576116f7611908565b5b828204905092915050565b600061170e826117d9565b9150611719836117d9565b9250817fffffffffffffffffffffffffffffffffffffffffffffffffffffffffffffffff0483118215151615611752576117516118d9565b5b828202905092915050565b6000611768826117d9565b9150611773836117d9565b925082821015611786576117856118d9565b5b828203905092915050565b600061179c826117b9565b9050919050565b60008115159050919050565b6000819050919050565b600073ffffffffffffffffffffffffffffffffffffffff82169050919050565b6000819050919050565b60006117ee82611807565b9050919050565b600061180082611807565b9050919050565b600061181282611819565b9050919050565b6000611824826117b9565b9050919050565b60005b8381101561184957808201518184015260208101905061182e565b83811115611858576000848401525b50505050565b6000600282049050600182168061187657607f821691505b6020821081141561188a57611889611937565b5b50919050565b600061189b826117d9565b91507fffffffffffffffffffffffffffffffffffffffffffffffffffffffffffffffff8214156118ce576118cd6118d9565b5b600182019050919050565b7f4e487b7100000000000000000000000000000000000000000000000000000000600052601160045260246000fd5b7f4e487b7100000000000000000000000000000000000000000000000000000000600052601260045260246000fd5b7f4e487b7100000000000000000000000000000000000000000000000000000000600052602260045260246000fd5b7f4e487b7100000000000000000000000000000000000000000000000000000000600052603260045260246000fd5b600080fd5b6000601f19601f8301169050919050565b7f4b524f4e204661726d3a20436f6e74726163747320617265206e6f7420616c6c60008201527f6f77656420746f2070726f636573732072657761726473210000000000000000602082015250565b7f416d6f756e742063616e6e6f742062652067726561746572207468616e20737460008201527f616b65642062616c616e63656421000000000000000000000000000000000000602082015250565b7f4b524f4e204661726d3a20436f6e74726163747320617265206e6f7420616c6c60008201527f6f77656420746f20756e7374616b652100000000000000000000000000000000602082015250565b7f4b524f4e204661726d3a20436f6e74726163747320617265206e6f7420616c6c60008201527f6f77656420746f207374616b6521000000000000000000000000000000000000602082015250565b7f4b524f4e204661726d20636f6e747261637420726577617264732064656e696560008201527f642120436f6e74726163742063616c6c206f63637572656420746f6f20736f6f60208201527f6e21000000000000000000000000000000000000000000000000000000000000604082015250565b7f4b524f4e204661726d3a204f6e6c79206f6e65207472616e73616374696f6e2060008201527f70657220626c6f636b20697320616c6c6f776564210000000000000000000000602082015250565b7f416d6f756e742063616e6e6f7420626520300000000000000000000000000000600082015250565b7f4b524f4e204661726d20636f6e747261637420646f6573206e6f74206861766560008201527f2073756666696369656e74206574682062616c616e636520746f20646973747260208201527f6962757465207265776172647321000000000000000000000000000000000000604082015250565b611c5281611791565b8114611c5d57600080fd5b50565b611c69816117a3565b8114611c7457600080fd5b50565b611c80816117d9565b8114611c8b57600080fd5b5056fea26469706673582212206f02b9b20f44714870c9c9c101bb4e977a06c874959261f44e71938fce20573f64736f6c63430008070033",
  "immutableReferences": {},
  "source": "// SPDX-License-Identifier: MIT\r\npragma solidity >=0.8.0;\r\n\r\n// Import KronToken\r\nimport {KronToken} from \"../KronToken/KronToken.sol\";\r\nimport {XKronToken} from \"./XKronToken.sol\";\r\n\r\n// Import Address Utility\r\nimport \"@openzeppelin/contracts/utils/Address.sol\";\r\n\r\n// Contact\r\ncontract KronFarm {\r\n\r\n    // Owner\r\n    address public owner;\r\n\r\n    // Name of Contract\r\n    string public name = \"KRON Farm\";\r\n\r\n    // Store instance of Kron Token\r\n    KronToken public kronToken;\r\n\r\n    // Store instance xKron Token\r\n    XKronToken public xkronToken;\r\n\r\n    // Array of stakers\r\n    address[] public stakers;\r\n    uint256 public totalStakedTokens;\r\n\r\n    // Last reward block\r\n    uint256 private lastRewardBlockTimeStamp;\r\n\r\n    // Reward Throttle \r\n    uint256 private _ethRewardThrottle;\r\n\r\n    // ETH Node Rewards Rates\r\n    uint256 private _ethNodeProfit;\r\n    uint256 private _ethNodeProfitRewardProcessingGasBounty;\r\n    uint256 private _ethNodeProfitDripRate;\r\n\r\n    // Address of the SHIBA Token Contract, sending KRON token to this address will benefit SHIB (33% of ETH Node rewards)\r\n    address private _shibaBurnAddress;\r\n\r\n    // Staking balance mapping\r\n    mapping(address => uint256) public stakingBalance;\r\n\r\n    // Has Staked ? mapping\r\n    mapping(address => bool) public hasStaked;\r\n\r\n    // Is Staking ? mapping\r\n    mapping(address => bool) public isStaking;\r\n\r\n    // Block Number -> Address Map\r\n    mapping(address => uint256) private _blockNumberByAddress;\r\n\r\n    // Minter Role\r\n    bytes32 public constant MINTER_ROLE = keccak256(\"MINTER_ROLE\");\r\n\r\n    // Constructor\r\n    constructor(KronToken _kronToken, XKronToken _xkronToken) {\r\n\r\n        kronToken = _kronToken;\r\n        xkronToken = _xkronToken;\r\n        owner = msg.sender;\r\n\r\n        totalStakedTokens           = 0;\r\n        _ethNodeProfit              = 3;                // 66% of KRON Farm Contract's to xKRON holders, 33% to DEV\r\n        _ethNodeProfitRewardProcessingGasBounty = 100;  // 1% of KRON Farm Contract's ETH Balance\r\n        _ethNodeProfitDripRate      = 10;               //  10% of total profit in this contract's ETH ledger will be processed\r\n\r\n        _ethRewardThrottle          = 0 seconds;        // 0 second reward throttle\r\n        lastRewardBlockTimeStamp    = block.timestamp;\r\n    }\r\n\r\n    // Will receive any eth sent to the contract\r\n    receive() external payable {}\r\n\r\n    // Will be called when no other function matches, not even the receive function\r\n    fallback() external payable {}\r\n\r\n    // Ensures only one tx per block per address\r\n    function ensureOneTxPerBlock(address addr) internal virtual {\r\n        bool isNewBlock = _blockNumberByAddress[addr] == 0 ||\r\n        _blockNumberByAddress[addr] < block.number;\r\n\r\n        require(isNewBlock, 'KRON Farm: Only one transaction per block is allowed!');\r\n\r\n        _blockNumberByAddress[addr] = block.number;\r\n    }\r\n\r\n    // 1. Stake Tokens, Allows investors to stake tokens to earn rewards\r\n    function stakeTokens(uint256 _amount) public {\r\n\r\n        address _from = msg.sender;\r\n        require(Address.isContract(_from) == false, \"KRON Farm: Contracts are not allowed to stake!\");\r\n        ensureOneTxPerBlock(_from);\r\n\r\n        // Require _amount to be > 0\r\n        require(_amount > 0, \"Amount cannot be 0\");\r\n        \r\n        // Transfer KRON Tokens to dev wallet for staking\r\n        kronToken.burnFrom(msg.sender, _amount);\r\n\r\n        // Transfer xKRON Tokens from dev wallet to investor for holding\r\n        xkronToken.mint(msg.sender, _amount);\r\n\r\n        // Update staking balance\r\n        stakingBalance[msg.sender] = stakingBalance[msg.sender] + _amount;\r\n        totalStakedTokens += _amount;\r\n\r\n        // Add user to stakers array only if they haven't staked already\r\n        if (!hasStaked[msg.sender]) {\r\n            stakers.push(msg.sender);\r\n        }\r\n\r\n        // Update staking status\r\n        hasStaked[msg.sender] = true;\r\n        isStaking[msg.sender] = true;\r\n    }\r\n\r\n    // 2. Unstaking Tokens, Allows investors to unstake their tokens\r\n    function unstakeTokens(uint256 _amount) public {\r\n\r\n        address _from = msg.sender;\r\n        require(Address.isContract(_from) == false, \"KRON Farm: Contracts are not allowed to unstake!\");\r\n        ensureOneTxPerBlock(_from);\r\n\r\n        require(_amount > 0, \"Amount cannot be 0\");\r\n\r\n        // Current balance\r\n        uint256 balance = stakingBalance[msg.sender];\r\n\r\n        // Require amount <= balance\r\n        require(_amount <= balance, \"Amount cannot be greater than staked balanced!\");\r\n                \r\n        // Burn xKRON from investors wallet\r\n        xkronToken.burnFrom(msg.sender, _amount);\r\n\r\n        // Mint KRON to investors wallet\r\n        kronToken.mint(address(this), _amount);\r\n        kronToken.transfer(msg.sender, _amount);\r\n\r\n        // Update the staking balance\r\n        stakingBalance[msg.sender] = stakingBalance[msg.sender] - _amount;\r\n        totalStakedTokens -= _amount;\r\n\r\n        // Remove user from stakers array if their balance = 0\r\n        if (hasStaked[msg.sender] && stakingBalance[msg.sender] == 0) {\r\n            \r\n            // Update staking status\r\n            hasStaked[msg.sender] = false;\r\n            isStaking[msg.sender] = false;\r\n        }\r\n    }\r\n\r\n    // 3. Issuing Rewards, Allows investors to claim their interest rewards\r\n    function issueRewards() public {\r\n        \r\n        address _from = msg.sender;\r\n        require(Address.isContract(_from) == false, \"KRON Farm: Contracts are not allowed to process rewards!\");\r\n        ensureOneTxPerBlock(_from);\r\n\r\n        // Prevent contract calls to this function when the current block timestamp isn't greater than the last contract call + our throttle limitation\r\n        require(block.timestamp > lastRewardBlockTimeStamp + _ethRewardThrottle, \"KRON Farm contract rewards denied! Contract call occured too soon!\");\r\n\r\n        // Update our last reward block timestamp state variable\r\n        lastRewardBlockTimeStamp = block.timestamp;\r\n\r\n        uint256 totalProfits = address(this).balance / _ethNodeProfitDripRate; // ETH balance of contract\r\n\r\n        uint256 bounty = totalProfits / _ethNodeProfitRewardProcessingGasBounty; // 1% of total profits\r\n        totalProfits -= bounty; // correct the totalProfits variable for further processing\r\n\r\n        uint256 thirdProfits = totalProfits / _ethNodeProfit;\r\n\r\n        // The farm contract must have enough ETH to distribute rewards\r\n        require(address(this).balance >= totalProfits, \"KRON Farm contract does not have sufficient eth balance to distribute rewards!\");\r\n\r\n        // Issue tokens to stakers (xKRON Rewards)\r\n        for (uint256 i=0; i < stakers.length; i++) {\r\n\r\n            address recipient = stakers[i];\r\n            uint256 balance = stakingBalance[recipient];\r\n\r\n            if (balance > 0) {\r\n\r\n                uint256 share = balance / totalStakedTokens;\r\n\r\n                if (share > 0) {\r\n\r\n                    // Pay the staker their fair share of ETH from the ETH node profits (66%)\r\n                    payable(recipient).transfer((share / (1/thirdProfits)) * 2);\r\n                }\r\n            }\r\n        }\r\n\r\n        // Distribute to Dev team (need array of dev wallet addresses to implement)\r\n        payable(owner).transfer(thirdProfits);\r\n\r\n        // Distribute bounty to contract caller (rewards processor / good samaritan)\r\n        payable(msg.sender).transfer(bounty);\r\n    }\r\n}",
  "sourcePath": "C:\\blockchain\\krontoken\\build\\contracts\\KronFarm\\KronFarm.sol",
  "compiler": {
    "name": "solc",
    "version": "0.8.7+commit.e28d00a7.Emscripten.clang"
  },
  "schemaVersion": "3.4.3",
  "updatedAt": "2021-09-03T23:37:54.697Z",
  "devdoc": {
    "kind": "dev",
    "methods": {},
    "version": 1
  },
  "userdoc": {
    "kind": "user",
    "methods": {},
    "version": 1
  }
}