{
  "contractName": "KronToken",
  "abi": [
    {
      "inputs": [],
      "stateMutability": "nonpayable",
      "type": "constructor"
    },
    {
      "anonymous": false,
      "inputs": [
        {
          "indexed": true,
          "internalType": "address",
          "name": "owner",
          "type": "address"
        },
        {
          "indexed": true,
          "internalType": "address",
          "name": "spender",
          "type": "address"
        },
        {
          "indexed": false,
          "internalType": "uint256",
          "name": "value",
          "type": "uint256"
        }
      ],
      "name": "Approval",
      "type": "event"
    },
    {
      "anonymous": false,
      "inputs": [
        {
          "indexed": true,
          "internalType": "bytes32",
          "name": "role",
          "type": "bytes32"
        },
        {
          "indexed": true,
          "internalType": "bytes32",
          "name": "previousAdminRole",
          "type": "bytes32"
        },
        {
          "indexed": true,
          "internalType": "bytes32",
          "name": "newAdminRole",
          "type": "bytes32"
        }
      ],
      "name": "RoleAdminChanged",
      "type": "event"
    },
    {
      "anonymous": false,
      "inputs": [
        {
          "indexed": true,
          "internalType": "bytes32",
          "name": "role",
          "type": "bytes32"
        },
        {
          "indexed": true,
          "internalType": "address",
          "name": "account",
          "type": "address"
        },
        {
          "indexed": true,
          "internalType": "address",
          "name": "sender",
          "type": "address"
        }
      ],
      "name": "RoleGranted",
      "type": "event"
    },
    {
      "anonymous": false,
      "inputs": [
        {
          "indexed": true,
          "internalType": "bytes32",
          "name": "role",
          "type": "bytes32"
        },
        {
          "indexed": true,
          "internalType": "address",
          "name": "account",
          "type": "address"
        },
        {
          "indexed": true,
          "internalType": "address",
          "name": "sender",
          "type": "address"
        }
      ],
      "name": "RoleRevoked",
      "type": "event"
    },
    {
      "anonymous": false,
      "inputs": [
        {
          "indexed": true,
          "internalType": "address",
          "name": "from",
          "type": "address"
        },
        {
          "indexed": true,
          "internalType": "address",
          "name": "to",
          "type": "address"
        },
        {
          "indexed": false,
          "internalType": "uint256",
          "name": "value",
          "type": "uint256"
        }
      ],
      "name": "Transfer",
      "type": "event"
    },
    {
      "inputs": [],
      "name": "DEFAULT_ADMIN_ROLE",
      "outputs": [
        {
          "internalType": "bytes32",
          "name": "",
          "type": "bytes32"
        }
      ],
      "stateMutability": "view",
      "type": "function"
    },
    {
      "inputs": [],
      "name": "MINTER_ROLE",
      "outputs": [
        {
          "internalType": "bytes32",
          "name": "",
          "type": "bytes32"
        }
      ],
      "stateMutability": "view",
      "type": "function"
    },
    {
      "inputs": [
        {
          "internalType": "address",
          "name": "owner",
          "type": "address"
        },
        {
          "internalType": "address",
          "name": "spender",
          "type": "address"
        }
      ],
      "name": "allowance",
      "outputs": [
        {
          "internalType": "uint256",
          "name": "",
          "type": "uint256"
        }
      ],
      "stateMutability": "view",
      "type": "function"
    },
    {
      "inputs": [
        {
          "internalType": "address",
          "name": "spender",
          "type": "address"
        },
        {
          "internalType": "uint256",
          "name": "amount",
          "type": "uint256"
        }
      ],
      "name": "approve",
      "outputs": [
        {
          "internalType": "bool",
          "name": "",
          "type": "bool"
        }
      ],
      "stateMutability": "nonpayable",
      "type": "function"
    },
    {
      "inputs": [
        {
          "internalType": "address",
          "name": "account",
          "type": "address"
        }
      ],
      "name": "balanceOf",
      "outputs": [
        {
          "internalType": "uint256",
          "name": "",
          "type": "uint256"
        }
      ],
      "stateMutability": "view",
      "type": "function"
    },
    {
      "inputs": [
        {
          "internalType": "uint256",
          "name": "amount",
          "type": "uint256"
        }
      ],
      "name": "burn",
      "outputs": [],
      "stateMutability": "nonpayable",
      "type": "function"
    },
    {
      "inputs": [
        {
          "internalType": "address",
          "name": "account",
          "type": "address"
        },
        {
          "internalType": "uint256",
          "name": "amount",
          "type": "uint256"
        }
      ],
      "name": "burnFrom",
      "outputs": [],
      "stateMutability": "nonpayable",
      "type": "function"
    },
    {
      "inputs": [],
      "name": "decimals",
      "outputs": [
        {
          "internalType": "uint8",
          "name": "",
          "type": "uint8"
        }
      ],
      "stateMutability": "view",
      "type": "function"
    },
    {
      "inputs": [
        {
          "internalType": "address",
          "name": "spender",
          "type": "address"
        },
        {
          "internalType": "uint256",
          "name": "subtractedValue",
          "type": "uint256"
        }
      ],
      "name": "decreaseAllowance",
      "outputs": [
        {
          "internalType": "bool",
          "name": "",
          "type": "bool"
        }
      ],
      "stateMutability": "nonpayable",
      "type": "function"
    },
    {
      "inputs": [
        {
          "internalType": "bytes32",
          "name": "role",
          "type": "bytes32"
        }
      ],
      "name": "getRoleAdmin",
      "outputs": [
        {
          "internalType": "bytes32",
          "name": "",
          "type": "bytes32"
        }
      ],
      "stateMutability": "view",
      "type": "function"
    },
    {
      "inputs": [
        {
          "internalType": "bytes32",
          "name": "role",
          "type": "bytes32"
        },
        {
          "internalType": "address",
          "name": "account",
          "type": "address"
        }
      ],
      "name": "grantRole",
      "outputs": [],
      "stateMutability": "nonpayable",
      "type": "function"
    },
    {
      "inputs": [
        {
          "internalType": "bytes32",
          "name": "role",
          "type": "bytes32"
        },
        {
          "internalType": "address",
          "name": "account",
          "type": "address"
        }
      ],
      "name": "hasRole",
      "outputs": [
        {
          "internalType": "bool",
          "name": "",
          "type": "bool"
        }
      ],
      "stateMutability": "view",
      "type": "function"
    },
    {
      "inputs": [
        {
          "internalType": "address",
          "name": "spender",
          "type": "address"
        },
        {
          "internalType": "uint256",
          "name": "addedValue",
          "type": "uint256"
        }
      ],
      "name": "increaseAllowance",
      "outputs": [
        {
          "internalType": "bool",
          "name": "",
          "type": "bool"
        }
      ],
      "stateMutability": "nonpayable",
      "type": "function"
    },
    {
      "inputs": [],
      "name": "name",
      "outputs": [
        {
          "internalType": "string",
          "name": "",
          "type": "string"
        }
      ],
      "stateMutability": "view",
      "type": "function"
    },
    {
      "inputs": [
        {
          "internalType": "bytes32",
          "name": "role",
          "type": "bytes32"
        },
        {
          "internalType": "address",
          "name": "account",
          "type": "address"
        }
      ],
      "name": "renounceRole",
      "outputs": [],
      "stateMutability": "nonpayable",
      "type": "function"
    },
    {
      "inputs": [
        {
          "internalType": "bytes32",
          "name": "role",
          "type": "bytes32"
        },
        {
          "internalType": "address",
          "name": "account",
          "type": "address"
        }
      ],
      "name": "revokeRole",
      "outputs": [],
      "stateMutability": "nonpayable",
      "type": "function"
    },
    {
      "inputs": [
        {
          "internalType": "bytes4",
          "name": "interfaceId",
          "type": "bytes4"
        }
      ],
      "name": "supportsInterface",
      "outputs": [
        {
          "internalType": "bool",
          "name": "",
          "type": "bool"
        }
      ],
      "stateMutability": "view",
      "type": "function"
    },
    {
      "inputs": [],
      "name": "symbol",
      "outputs": [
        {
          "internalType": "string",
          "name": "",
          "type": "string"
        }
      ],
      "stateMutability": "view",
      "type": "function"
    },
    {
      "inputs": [],
      "name": "totalSupply",
      "outputs": [
        {
          "internalType": "uint256",
          "name": "",
          "type": "uint256"
        }
      ],
      "stateMutability": "view",
      "type": "function"
    },
    {
      "inputs": [],
      "name": "rewardsFactor",
      "outputs": [
        {
          "internalType": "uint256",
          "name": "",
          "type": "uint256"
        }
      ],
      "stateMutability": "view",
      "type": "function"
    },
    {
      "inputs": [
        {
          "internalType": "address",
          "name": "_to",
          "type": "address"
        },
        {
          "internalType": "uint256",
          "name": "_value",
          "type": "uint256"
        }
      ],
      "name": "transfer",
      "outputs": [
        {
          "internalType": "bool",
          "name": "",
          "type": "bool"
        }
      ],
      "stateMutability": "nonpayable",
      "type": "function"
    },
    {
      "inputs": [
        {
          "internalType": "address",
          "name": "_from",
          "type": "address"
        },
        {
          "internalType": "address",
          "name": "_to",
          "type": "address"
        },
        {
          "internalType": "uint256",
          "name": "_value",
          "type": "uint256"
        }
      ],
      "name": "transferFrom",
      "outputs": [
        {
          "internalType": "bool",
          "name": "",
          "type": "bool"
        }
      ],
      "stateMutability": "nonpayable",
      "type": "function"
    },
    {
      "inputs": [
        {
          "internalType": "address",
          "name": "to",
          "type": "address"
        },
        {
          "internalType": "uint256",
          "name": "amount",
          "type": "uint256"
        }
      ],
      "name": "mint",
      "outputs": [],
      "stateMutability": "nonpayable",
      "type": "function"
    }
  ],
  "bytecode": "0x60806040526c0a9a2fb6ec6424c7d9400000006007556b02b6d4eb3e906bb848000000600a553480156200003257600080fd5b506040518060400160405280600a81526020017f4b524f4e20546f6b656e000000000000000000000000000000000000000000008152506040518060400160405280600481526020017f4b524f4e000000000000000000000000000000000000000000000000000000008152508160039080519060200190620000b7929190620004e2565b508060049080519060200190620000d0929190620004e2565b50505033600660006101000a81548173ffffffffffffffffffffffffffffffffffffffff021916908373ffffffffffffffffffffffffffffffffffffffff16021790555060286008819055507320788d5f1a23e3f9db2ebfc2be490d6567990921600960006101000a81548173ffffffffffffffffffffffffffffffffffffffff021916908373ffffffffffffffffffffffffffffffffffffffff160217905550620001a7600660009054906101000a900473ffffffffffffffffffffffffffffffffffffffff16600754620001e460201b60201c565b620001de6000801b600660009054906101000a900473ffffffffffffffffffffffffffffffffffffffff166200035d60201b60201c565b6200073e565b600073ffffffffffffffffffffffffffffffffffffffff168273ffffffffffffffffffffffffffffffffffffffff16141562000257576040517f08c379a00000000000000000000000000000000000000000000000000000000081526004016200024e90620005ca565b60405180910390fd5b6200026b600083836200037360201b60201c565b80600260008282546200027f91906200061a565b92505081905550806000808473ffffffffffffffffffffffffffffffffffffffff1673ffffffffffffffffffffffffffffffffffffffff1681526020019081526020016000206000828254620002d691906200061a565b925050819055508173ffffffffffffffffffffffffffffffffffffffff16600073ffffffffffffffffffffffffffffffffffffffff167fddf252ad1be2c89b69c2b068fc378daa952ba7f163c4a11628f55a4df523b3ef836040516200033d9190620005ec565b60405180910390a362000359600083836200037860201b60201c565b5050565b6200036f82826200037d60201b60201c565b5050565b505050565b505050565b6200038f82826200046f60201b60201c565b6200046b5760016005600084815260200190815260200160002060000160008373ffffffffffffffffffffffffffffffffffffffff1673ffffffffffffffffffffffffffffffffffffffff16815260200190815260200160002060006101000a81548160ff02191690831515021790555062000410620004da60201b60201c565b73ffffffffffffffffffffffffffffffffffffffff168173ffffffffffffffffffffffffffffffffffffffff16837f2f8788117e7eff1d82e926ec794901d17c78024a50270940304540a733656f0d60405160405180910390a45b5050565b60006005600084815260200190815260200160002060000160008373ffffffffffffffffffffffffffffffffffffffff1673ffffffffffffffffffffffffffffffffffffffff16815260200190815260200160002060009054906101000a900460ff16905092915050565b600033905090565b828054620004f09062000681565b90600052602060002090601f01602090048101928262000514576000855562000560565b82601f106200052f57805160ff191683800117855562000560565b8280016001018555821562000560579182015b828111156200055f57825182559160200191906001019062000542565b5b5090506200056f919062000573565b5090565b5b808211156200058e57600081600090555060010162000574565b5090565b6000620005a1601f8362000609565b9150620005ae8262000715565b602082019050919050565b620005c48162000677565b82525050565b60006020820190508181036000830152620005e58162000592565b9050919050565b6000602082019050620006036000830184620005b9565b92915050565b600082825260208201905092915050565b6000620006278262000677565b9150620006348362000677565b9250827fffffffffffffffffffffffffffffffffffffffffffffffffffffffffffffffff038211156200066c576200066b620006b7565b5b828201905092915050565b6000819050919050565b600060028204905060018216806200069a57607f821691505b60208210811415620006b157620006b0620006e6565b5b50919050565b7f4e487b7100000000000000000000000000000000000000000000000000000000600052601160045260246000fd5b7f4e487b7100000000000000000000000000000000000000000000000000000000600052602260045260246000fd5b7f45524332303a206d696e7420746f20746865207a65726f206164647265737300600082015250565b612e07806200074e6000396000f3fe608060405234801561001057600080fd5b506004361061014d5760003560e01c806342966c68116100c3578063a217fddf1161007c578063a217fddf146103c4578063a457c2d7146103e2578063a9059cbb14610412578063d539139314610442578063d547741f14610460578063dd62ed3e1461047c5761014d565b806342966c68146102f05780634369c2501461030c57806370a082311461032a57806379cc67901461035a57806391d148541461037657806395d89b41146103a65761014d565b8063248a9ca311610115578063248a9ca31461021e5780632f2ff15d1461024e578063313ce5671461026a57806336568abe1461028857806339509351146102a457806340c10f19146102d45761014d565b806301ffc9a71461015257806306fdde0314610182578063095ea7b3146101a057806318160ddd146101d057806323b872dd146101ee575b600080fd5b61016c60048036038101906101679190611e7e565b6104ac565b6040516101799190612251565b60405180910390f35b61018a610526565b6040516101979190612287565b60405180910390f35b6101ba60048036038101906101b59190611dd1565b6105b8565b6040516101c79190612251565b60405180910390f35b6101d86105d6565b6040516101e591906124c9565b60405180910390f35b61020860048036038101906102039190611d7e565b6105e0565b6040516102159190612251565b60405180910390f35b61023860048036038101906102339190611e11565b6106f5565b604051610245919061226c565b60405180910390f35b61026860048036038101906102639190611e3e565b610715565b005b61027261073e565b60405161027f91906124e4565b60405180910390f35b6102a2600480360381019061029d9190611e3e565b610747565b005b6102be60048036038101906102b99190611dd1565b6107ca565b6040516102cb9190612251565b60405180910390f35b6102ee60048036038101906102e99190611dd1565b610876565b005b61030a60048036038101906103059190611eab565b6108ed565b005b610314610901565b60405161032191906124c9565b60405180910390f35b610344600480360381019061033f9190611d11565b61090b565b60405161035191906124c9565b60405180910390f35b610374600480360381019061036f9190611dd1565b610953565b005b610390600480360381019061038b9190611e3e565b6109ce565b60405161039d9190612251565b60405180910390f35b6103ae610a39565b6040516103bb9190612287565b60405180910390f35b6103cc610acb565b6040516103d9919061226c565b60405180910390f35b6103fc60048036038101906103f79190611dd1565b610ad2565b6040516104099190612251565b60405180910390f35b61042c60048036038101906104279190611dd1565b610bbd565b6040516104399190612251565b60405180910390f35b61044a610cd6565b604051610457919061226c565b60405180910390f35b61047a60048036038101906104759190611e3e565b610cfa565b005b61049660048036038101906104919190611d3e565b610d23565b6040516104a391906124c9565b60405180910390f35b60007f7965db0b000000000000000000000000000000000000000000000000000000007bffffffffffffffffffffffffffffffffffffffffffffffffffffffff1916827bffffffffffffffffffffffffffffffffffffffffffffffffffffffff1916148061051f575061051e82610daa565b5b9050919050565b60606003805461053590612723565b80601f016020809104026020016040519081016040528092919081815260200182805461056190612723565b80156105ae5780601f10610583576101008083540402835291602001916105ae565b820191906000526020600020905b81548152906001019060200180831161059157829003601f168201915b5050505050905090565b60006105cc6105c5610e14565b8484610e1c565b6001905092915050565b6000600254905090565b6000600a548210610626576040517f08c379a000000000000000000000000000000000000000000000000000000000815260040161061d90612429565b60405180910390fd5b60006106328585610fe7565b905061063d81611063565b60006008548461064d919061257c565b9050610665868683876106609190612607565b611136565b156106e75761069786600960009054906101000a900473ffffffffffffffffffffffffffffffffffffffff1683611136565b5043600b60008473ffffffffffffffffffffffffffffffffffffffff1673ffffffffffffffffffffffffffffffffffffffff168152602001908152602001600020819055506001925050506106ee565b6000925050505b9392505050565b600060056000838152602001908152602001600020600101549050919050565b61071e826106f5565b61072f8161072a610e14565b61122e565b61073983836112cb565b505050565b60006012905090565b61074f610e14565b73ffffffffffffffffffffffffffffffffffffffff168173ffffffffffffffffffffffffffffffffffffffff16146107bc576040517f08c379a00000000000000000000000000000000000000000000000000000000081526004016107b390612489565b60405180910390fd5b6107c682826113ac565b5050565b600061086c6107d7610e14565b8484600160006107e5610e14565b73ffffffffffffffffffffffffffffffffffffffff1673ffffffffffffffffffffffffffffffffffffffff16815260200190815260200160002060008873ffffffffffffffffffffffffffffffffffffffff1673ffffffffffffffffffffffffffffffffffffffff168152602001908152602001600020546108679190612526565b610e1c565b6001905092915050565b6108a07f9f2df0fed2c77648de5860a4cc508cd0818c85b8b8a1ab4ceeef8d981c8956a6336109ce565b6108df576040517f08c379a00000000000000000000000000000000000000000000000000000000081526004016108d690612369565b60405180910390fd5b6108e9828261148e565b5050565b6108fe6108f8610e14565b826115ee565b50565b6000600854905090565b60008060008373ffffffffffffffffffffffffffffffffffffffff1673ffffffffffffffffffffffffffffffffffffffff168152602001908152602001600020549050919050565b600061096683610961610e14565b610d23565b9050818110156109ab576040517f08c379a00000000000000000000000000000000000000000000000000000000081526004016109a2906123a9565b60405180910390fd5b6109bf836109b7610e14565b848403610e1c565b6109c983836115ee565b505050565b60006005600084815260200190815260200160002060000160008373ffffffffffffffffffffffffffffffffffffffff1673ffffffffffffffffffffffffffffffffffffffff16815260200190815260200160002060009054906101000a900460ff16905092915050565b606060048054610a4890612723565b80601f0160208091040260200160405190810160405280929190818152602001828054610a7490612723565b8015610ac15780601f10610a9657610100808354040283529160200191610ac1565b820191906000526020600020905b815481529060010190602001808311610aa457829003601f168201915b5050505050905090565b6000801b81565b60008060016000610ae1610e14565b73ffffffffffffffffffffffffffffffffffffffff1673ffffffffffffffffffffffffffffffffffffffff16815260200190815260200160002060008573ffffffffffffffffffffffffffffffffffffffff1673ffffffffffffffffffffffffffffffffffffffff16815260200190815260200160002054905082811015610b9e576040517f08c379a0000000000000000000000000000000000000000000000000000000008152600401610b9590612469565b60405180910390fd5b610bb2610ba9610e14565b85858403610e1c565b600191505092915050565b6000600a548210610c03576040517f08c379a0000000000000000000000000000000000000000000000000000000008152600401610bfa90612429565b60405180910390fd5b60003390506000610c148286610fe7565b9050610c1f81611063565b600060085485610c2f919061257c565b9050610c46868287610c419190612607565b6117c5565b15610cc857610c77600960009054906101000a900473ffffffffffffffffffffffffffffffffffffffff16826117c5565b5043600b60008473ffffffffffffffffffffffffffffffffffffffff1673ffffffffffffffffffffffffffffffffffffffff1681526020019081526020016000208190555060019350505050610cd0565b600093505050505b92915050565b7f9f2df0fed2c77648de5860a4cc508cd0818c85b8b8a1ab4ceeef8d981c8956a681565b610d03826106f5565b610d1481610d0f610e14565b61122e565b610d1e83836113ac565b505050565b6000600160008473ffffffffffffffffffffffffffffffffffffffff1673ffffffffffffffffffffffffffffffffffffffff16815260200190815260200160002060008373ffffffffffffffffffffffffffffffffffffffff1673ffffffffffffffffffffffffffffffffffffffff16815260200190815260200160002054905092915050565b60007f01ffc9a7000000000000000000000000000000000000000000000000000000007bffffffffffffffffffffffffffffffffffffffffffffffffffffffff1916827bffffffffffffffffffffffffffffffffffffffffffffffffffffffff1916149050919050565b600033905090565b600073ffffffffffffffffffffffffffffffffffffffff168373ffffffffffffffffffffffffffffffffffffffff161415610e8c576040517f08c379a0000000000000000000000000000000000000000000000000000000008152600401610e8390612409565b60405180910390fd5b600073ffffffffffffffffffffffffffffffffffffffff168273ffffffffffffffffffffffffffffffffffffffff161415610efc576040517f08c379a0000000000000000000000000000000000000000000000000000000008152600401610ef390612309565b60405180910390fd5b80600160008573ffffffffffffffffffffffffffffffffffffffff1673ffffffffffffffffffffffffffffffffffffffff16815260200190815260200160002060008473ffffffffffffffffffffffffffffffffffffffff1673ffffffffffffffffffffffffffffffffffffffff168152602001908152602001600020819055508173ffffffffffffffffffffffffffffffffffffffff168373ffffffffffffffffffffffffffffffffffffffff167f8c5be1e5ebec7d5bd14f71427d1e84f3dd0314c0f7b2291e5b200ac8c7c3b92583604051610fda91906124c9565b60405180910390a3505050565b6000610ff2836117e3565b15806110045750611002826117e3565b155b611043576040517f08c379a000000000000000000000000000000000000000000000000000000000815260040161103a90612449565b60405180910390fd5b61104c836117e3565b156110595781905061105d565b8290505b92915050565b600080600b60008473ffffffffffffffffffffffffffffffffffffffff1673ffffffffffffffffffffffffffffffffffffffff1681526020019081526020016000205414806110f0575043600b60008473ffffffffffffffffffffffffffffffffffffffff1673ffffffffffffffffffffffffffffffffffffffff16815260200190815260200160002054105b905080611132576040517f08c379a000000000000000000000000000000000000000000000000000000000815260040161112990612349565b60405180910390fd5b5050565b60006111438484846117f6565b6000600160008673ffffffffffffffffffffffffffffffffffffffff1673ffffffffffffffffffffffffffffffffffffffff168152602001908152602001600020600061118e610e14565b73ffffffffffffffffffffffffffffffffffffffff1673ffffffffffffffffffffffffffffffffffffffff1681526020019081526020016000205490508281101561120e576040517f08c379a000000000000000000000000000000000000000000000000000000000815260040161120590612389565b60405180910390fd5b6112228561121a610e14565b858403610e1c565b60019150509392505050565b61123882826109ce565b6112c75761125d8173ffffffffffffffffffffffffffffffffffffffff166014611a77565b61126b8360001c6020611a77565b60405160200161127c929190612217565b6040516020818303038152906040526040517f08c379a00000000000000000000000000000000000000000000000000000000081526004016112be9190612287565b60405180910390fd5b5050565b6112d582826109ce565b6113a85760016005600084815260200190815260200160002060000160008373ffffffffffffffffffffffffffffffffffffffff1673ffffffffffffffffffffffffffffffffffffffff16815260200190815260200160002060006101000a81548160ff02191690831515021790555061134d610e14565b73ffffffffffffffffffffffffffffffffffffffff168173ffffffffffffffffffffffffffffffffffffffff16837f2f8788117e7eff1d82e926ec794901d17c78024a50270940304540a733656f0d60405160405180910390a45b5050565b6113b682826109ce565b1561148a5760006005600084815260200190815260200160002060000160008373ffffffffffffffffffffffffffffffffffffffff1673ffffffffffffffffffffffffffffffffffffffff16815260200190815260200160002060006101000a81548160ff02191690831515021790555061142f610e14565b73ffffffffffffffffffffffffffffffffffffffff168173ffffffffffffffffffffffffffffffffffffffff16837ff6391f5c32d9c69d2a47ea670b442974b53935d1edc7fd64eb21e047a839171b60405160405180910390a45b5050565b600073ffffffffffffffffffffffffffffffffffffffff168273ffffffffffffffffffffffffffffffffffffffff1614156114fe576040517f08c379a00000000000000000000000000000000000000000000000000000000081526004016114f5906124a9565b60405180910390fd5b61150a60008383611cb3565b806002600082825461151c9190612526565b92505081905550806000808473ffffffffffffffffffffffffffffffffffffffff1673ffffffffffffffffffffffffffffffffffffffff16815260200190815260200160002060008282546115719190612526565b925050819055508173ffffffffffffffffffffffffffffffffffffffff16600073ffffffffffffffffffffffffffffffffffffffff167fddf252ad1be2c89b69c2b068fc378daa952ba7f163c4a11628f55a4df523b3ef836040516115d691906124c9565b60405180910390a36115ea60008383611cb8565b5050565b600073ffffffffffffffffffffffffffffffffffffffff168273ffffffffffffffffffffffffffffffffffffffff16141561165e576040517f08c379a0000000000000000000000000000000000000000000000000000000008152600401611655906123c9565b60405180910390fd5b61166a82600083611cb3565b60008060008473ffffffffffffffffffffffffffffffffffffffff1673ffffffffffffffffffffffffffffffffffffffff168152602001908152602001600020549050818110156116f0576040517f08c379a00000000000000000000000000000000000000000000000000000000081526004016116e7906122e9565b60405180910390fd5b8181036000808573ffffffffffffffffffffffffffffffffffffffff1673ffffffffffffffffffffffffffffffffffffffff1681526020019081526020016000208190555081600260008282546117479190612607565b92505081905550600073ffffffffffffffffffffffffffffffffffffffff168373ffffffffffffffffffffffffffffffffffffffff167fddf252ad1be2c89b69c2b068fc378daa952ba7f163c4a11628f55a4df523b3ef846040516117ac91906124c9565b60405180910390a36117c083600084611cb8565b505050565b60006117d96117d2610e14565b84846117f6565b6001905092915050565b600080823b905060008111915050919050565b600073ffffffffffffffffffffffffffffffffffffffff168373ffffffffffffffffffffffffffffffffffffffff161415611866576040517f08c379a000000000000000000000000000000000000000000000000000000000815260040161185d906123e9565b60405180910390fd5b600073ffffffffffffffffffffffffffffffffffffffff168273ffffffffffffffffffffffffffffffffffffffff1614156118d6576040517f08c379a00000000000000000000000000000000000000000000000000000000081526004016118cd906122c9565b60405180910390fd5b6118e1838383611cb3565b60008060008573ffffffffffffffffffffffffffffffffffffffff1673ffffffffffffffffffffffffffffffffffffffff16815260200190815260200160002054905081811015611967576040517f08c379a000000000000000000000000000000000000000000000000000000000815260040161195e90612329565b60405180910390fd5b8181036000808673ffffffffffffffffffffffffffffffffffffffff1673ffffffffffffffffffffffffffffffffffffffff16815260200190815260200160002081905550816000808573ffffffffffffffffffffffffffffffffffffffff1673ffffffffffffffffffffffffffffffffffffffff16815260200190815260200160002060008282546119fa9190612526565b925050819055508273ffffffffffffffffffffffffffffffffffffffff168473ffffffffffffffffffffffffffffffffffffffff167fddf252ad1be2c89b69c2b068fc378daa952ba7f163c4a11628f55a4df523b3ef84604051611a5e91906124c9565b60405180910390a3611a71848484611cb8565b50505050565b606060006002836002611a8a91906125ad565b611a949190612526565b67ffffffffffffffff811115611aad57611aac612811565b5b6040519080825280601f01601f191660200182016040528015611adf5781602001600182028036833780820191505090505b5090507f300000000000000000000000000000000000000000000000000000000000000081600081518110611b1757611b166127e2565b5b60200101907effffffffffffffffffffffffffffffffffffffffffffffffffffffffffffff1916908160001a9053507f780000000000000000000000000000000000000000000000000000000000000081600181518110611b7b57611b7a6127e2565b5b60200101907effffffffffffffffffffffffffffffffffffffffffffffffffffffffffffff1916908160001a90535060006001846002611bbb91906125ad565b611bc59190612526565b90505b6001811115611c65577f3031323334353637383961626364656600000000000000000000000000000000600f861660108110611c0757611c066127e2565b5b1a60f81b828281518110611c1e57611c1d6127e2565b5b60200101907effffffffffffffffffffffffffffffffffffffffffffffffffffffffffffff1916908160001a905350600485901c945080611c5e906126f9565b9050611bc8565b5060008414611ca9576040517f08c379a0000000000000000000000000000000000000000000000000000000008152600401611ca0906122a9565b60405180910390fd5b8091505092915050565b505050565b505050565b600081359050611ccc81612d75565b92915050565b600081359050611ce181612d8c565b92915050565b600081359050611cf681612da3565b92915050565b600081359050611d0b81612dba565b92915050565b600060208284031215611d2757611d26612840565b5b6000611d3584828501611cbd565b91505092915050565b60008060408385031215611d5557611d54612840565b5b6000611d6385828601611cbd565b9250506020611d7485828601611cbd565b9150509250929050565b600080600060608486031215611d9757611d96612840565b5b6000611da586828701611cbd565b9350506020611db686828701611cbd565b9250506040611dc786828701611cfc565b9150509250925092565b60008060408385031215611de857611de7612840565b5b6000611df685828601611cbd565b9250506020611e0785828601611cfc565b9150509250929050565b600060208284031215611e2757611e26612840565b5b6000611e3584828501611cd2565b91505092915050565b60008060408385031215611e5557611e54612840565b5b6000611e6385828601611cd2565b9250506020611e7485828601611cbd565b9150509250929050565b600060208284031215611e9457611e93612840565b5b6000611ea284828501611ce7565b91505092915050565b600060208284031215611ec157611ec0612840565b5b6000611ecf84828501611cfc565b91505092915050565b611ee18161264d565b82525050565b611ef081612659565b82525050565b6000611f01826124ff565b611f0b818561250a565b9350611f1b8185602086016126c6565b611f2481612845565b840191505092915050565b6000611f3a826124ff565b611f44818561251b565b9350611f548185602086016126c6565b80840191505092915050565b6000611f6d60208361250a565b9150611f7882612856565b602082019050919050565b6000611f9060238361250a565b9150611f9b8261287f565b604082019050919050565b6000611fb360228361250a565b9150611fbe826128ce565b604082019050919050565b6000611fd660228361250a565b9150611fe18261291d565b604082019050919050565b6000611ff960268361250a565b91506120048261296c565b604082019050919050565b600061201c60368361250a565b9150612027826129bb565b604082019050919050565b600061203f60168361250a565b915061204a82612a0a565b602082019050919050565b600061206260288361250a565b915061206d82612a33565b604082019050919050565b600061208560248361250a565b915061209082612a82565b604082019050919050565b60006120a860218361250a565b91506120b382612ad1565b604082019050919050565b60006120cb60258361250a565b91506120d682612b20565b604082019050919050565b60006120ee60248361250a565b91506120f982612b6f565b604082019050919050565b600061211160388361250a565b915061211c82612bbe565b604082019050919050565b600061213460178361251b565b915061213f82612c0d565b601782019050919050565b600061215760328361250a565b915061216282612c36565b604082019050919050565b600061217a60258361250a565b915061218582612c85565b604082019050919050565b600061219d60118361251b565b91506121a882612cd4565b601182019050919050565b60006121c0602f8361250a565b91506121cb82612cfd565b604082019050919050565b60006121e3601f8361250a565b91506121ee82612d4c565b602082019050919050565b612202816126af565b82525050565b612211816126b9565b82525050565b600061222282612127565b915061222e8285611f2f565b915061223982612190565b91506122458284611f2f565b91508190509392505050565b60006020820190506122666000830184611ed8565b92915050565b60006020820190506122816000830184611ee7565b92915050565b600060208201905081810360008301526122a18184611ef6565b905092915050565b600060208201905081810360008301526122c281611f60565b9050919050565b600060208201905081810360008301526122e281611f83565b9050919050565b6000602082019050818103600083015261230281611fa6565b9050919050565b6000602082019050818103600083015261232281611fc9565b9050919050565b6000602082019050818103600083015261234281611fec565b9050919050565b600060208201905081810360008301526123628161200f565b9050919050565b6000602082019050818103600083015261238281612032565b9050919050565b600060208201905081810360008301526123a281612055565b9050919050565b600060208201905081810360008301526123c281612078565b9050919050565b600060208201905081810360008301526123e28161209b565b9050919050565b60006020820190508181036000830152612402816120be565b9050919050565b60006020820190508181036000830152612422816120e1565b9050919050565b6000602082019050818103600083015261244281612104565b9050919050565b600060208201905081810360008301526124628161214a565b9050919050565b600060208201905081810360008301526124828161216d565b9050919050565b600060208201905081810360008301526124a2816121b3565b9050919050565b600060208201905081810360008301526124c2816121d6565b9050919050565b60006020820190506124de60008301846121f9565b92915050565b60006020820190506124f96000830184612208565b92915050565b600081519050919050565b600082825260208201905092915050565b600081905092915050565b6000612531826126af565b915061253c836126af565b9250827fffffffffffffffffffffffffffffffffffffffffffffffffffffffffffffffff0382111561257157612570612755565b5b828201905092915050565b6000612587826126af565b9150612592836126af565b9250826125a2576125a1612784565b5b828204905092915050565b60006125b8826126af565b91506125c3836126af565b9250817fffffffffffffffffffffffffffffffffffffffffffffffffffffffffffffffff04831182151516156125fc576125fb612755565b5b828202905092915050565b6000612612826126af565b915061261d836126af565b9250828210156126305761262f612755565b5b828203905092915050565b60006126468261268f565b9050919050565b60008115159050919050565b6000819050919050565b60007fffffffff0000000000000000000000000000000000000000000000000000000082169050919050565b600073ffffffffffffffffffffffffffffffffffffffff82169050919050565b6000819050919050565b600060ff82169050919050565b60005b838110156126e45780820151818401526020810190506126c9565b838111156126f3576000848401525b50505050565b6000612704826126af565b9150600082141561271857612717612755565b5b600182039050919050565b6000600282049050600182168061273b57607f821691505b6020821081141561274f5761274e6127b3565b5b50919050565b7f4e487b7100000000000000000000000000000000000000000000000000000000600052601160045260246000fd5b7f4e487b7100000000000000000000000000000000000000000000000000000000600052601260045260246000fd5b7f4e487b7100000000000000000000000000000000000000000000000000000000600052602260045260246000fd5b7f4e487b7100000000000000000000000000000000000000000000000000000000600052603260045260246000fd5b7f4e487b7100000000000000000000000000000000000000000000000000000000600052604160045260246000fd5b600080fd5b6000601f19601f8301169050919050565b7f537472696e67733a20686578206c656e67746820696e73756666696369656e74600082015250565b7f45524332303a207472616e7366657220746f20746865207a65726f206164647260008201527f6573730000000000000000000000000000000000000000000000000000000000602082015250565b7f45524332303a206275726e20616d6f756e7420657863656564732062616c616e60008201527f6365000000000000000000000000000000000000000000000000000000000000602082015250565b7f45524332303a20617070726f766520746f20746865207a65726f20616464726560008201527f7373000000000000000000000000000000000000000000000000000000000000602082015250565b7f45524332303a207472616e7366657220616d6f756e742065786365656473206260008201527f616c616e63650000000000000000000000000000000000000000000000000000602082015250565b7f4b524f4e20546f6b656e3a204f6e6c79206f6e65207472616e73616374696f6e60008201527f2070657220626c6f636b20697320616c6c6f7765642100000000000000000000602082015250565b7f43616c6c6572206973206e6f742061206d696e74657200000000000000000000600082015250565b7f45524332303a207472616e7366657220616d6f756e742065786365656473206160008201527f6c6c6f77616e6365000000000000000000000000000000000000000000000000602082015250565b7f45524332303a206275726e20616d6f756e74206578636565647320616c6c6f7760008201527f616e636500000000000000000000000000000000000000000000000000000000602082015250565b7f45524332303a206275726e2066726f6d20746865207a65726f2061646472657360008201527f7300000000000000000000000000000000000000000000000000000000000000602082015250565b7f45524332303a207472616e736665722066726f6d20746865207a65726f20616460008201527f6472657373000000000000000000000000000000000000000000000000000000602082015250565b7f45524332303a20617070726f76652066726f6d20746865207a65726f2061646460008201527f7265737300000000000000000000000000000000000000000000000000000000602082015250565b7f4b726f6e546f6b656e3a205472616e7366657220616d6f756e7420657865656460008201527f7320302e303125206f6620746f74616c20737570706c79210000000000000000602082015250565b7f416363657373436f6e74726f6c3a206163636f756e7420000000000000000000600082015250565b7f4b524f4e20546f6b656e3a2041746c65617374206f6e652068756d616e20616460008201527f6472657373206973207265717569726564210000000000000000000000000000602082015250565b7f45524332303a2064656372656173656420616c6c6f77616e63652062656c6f7760008201527f207a65726f000000000000000000000000000000000000000000000000000000602082015250565b7f206973206d697373696e6720726f6c6520000000000000000000000000000000600082015250565b7f416363657373436f6e74726f6c3a2063616e206f6e6c792072656e6f756e636560008201527f20726f6c657320666f722073656c660000000000000000000000000000000000602082015250565b7f45524332303a206d696e7420746f20746865207a65726f206164647265737300600082015250565b612d7e8161263b565b8114612d8957600080fd5b50565b612d9581612659565b8114612da057600080fd5b50565b612dac81612663565b8114612db757600080fd5b50565b612dc3816126af565b8114612dce57600080fd5b5056fea26469706673582212205c40412f347a1133e0321fca2b0da55ec173e3bf36f8e57b37dc6c4610dac24d64736f6c63430008070033",
  "immutableReferences": {},
  "source": "// SPDX-License-Identifier: MIT\npragma solidity >=0.8.0;\n\nimport {KronFarm} from \"../KronFarm/KronFarm.sol\";\n\nimport \"@openzeppelin/contracts/token/ERC20/ERC20.sol\";\nimport \"@openzeppelin/contracts/token/ERC20/extensions/ERC20Burnable.sol\";\nimport \"@openzeppelin/contracts/utils/Address.sol\";\nimport \"@openzeppelin/contracts/access/AccessControl.sol\";\n\ncontract KronToken is ERC20, ERC20Burnable, AccessControl {\n\n    address private owner;\n    uint256 private _totalSupply        = 840000000000000000000000000000; // 840 BILLION Kron, 420 BILLION Kron to be minted to ShibaSwap contract by the dev wallet\n    uint private _rewardsFactor;\n    address private _rewardsAddress;\n\n    uint256 private _antiWhaleLimit     = 840000000000000000000000000;  // 840 MILLION KRON, Hard cap on transfer quantity (0.01% of Total Supply)\n\n    // Create a new role identifier for the minter role\n    bytes32 public constant MINTER_ROLE = keccak256(\"MINTER_ROLE\");\n\n    mapping(address => uint256) private _blockNumberByAddress;\n\n    constructor() ERC20(\"KRON Token\", \"KRON\") {\n\n        // Save deployer / owner address\n        owner = msg.sender;\n\n        // Specify rewards factor\n        _rewardsFactor         = 40;    // Reward is 1/40th of X = 0.025 or 2.5%\n\n        // Specify rewards address\n        _rewardsAddress = address(0x20788d5F1A23e3f9Db2eBFc2be490D6567990921); // Third account in list\n\n        // Mint total supply to contract owner\n        _mint(owner, _totalSupply);\n\n        // Grant the admin role to a specified account (contract deployer)\n        _setupRole(DEFAULT_ADMIN_ROLE, owner);\n    }\n\n    function rewardsFactor() public view returns (uint256)\n    {\n        return _rewardsFactor;\n    }\n\n    function ensureOneHuman(address _to, address _from) internal virtual returns (address) {\n        require(!Address.isContract(_to) || !Address.isContract(_from), 'KRON Token: Atleast one human address is required!');\n        if (Address.isContract(_to)) return _from;\n        else return _to;\n    }\n\n    function ensureOneTxPerBlock(address addr) internal virtual {\n        bool isNewBlock = _blockNumberByAddress[addr] == 0 ||\n        _blockNumberByAddress[addr] < block.number;\n\n        require(isNewBlock, 'KRON Token: Only one transaction per block is allowed!');\n    }\n    \n    function transfer(address _to, uint256 _value) public virtual override returns (bool) {\n\n        require(_value < _antiWhaleLimit, \"KronToken: Transfer amount exeeds 0.01% of total supply!\");\n\n        address _from = msg.sender;\n        address human = ensureOneHuman(_from, _to);\n        ensureOneTxPerBlock(human);\n\n        uint256 totalRewards = _value / _rewardsFactor;\n\n        // Attempt transfer of X - Y rewards to specified address\n        if (ERC20.transfer(_to, _value - totalRewards)) {\n            \n            // Attempt transfer of Y rewards to rewards wallet\n            ERC20.transfer(_rewardsAddress, totalRewards);\n\n            // Mark the block that this address \n            _blockNumberByAddress[human] = block.number;\n\n            // Success\n            return true;\n        } \n        else\n        {   \n            // Failure\n            return false;\n        }\n    }\n\n    function transferFrom(address _from, address _to, uint256 _value) public virtual override returns (bool) {\n\n        require(_value < _antiWhaleLimit, \"KronToken: Transfer amount exeeds 0.01% of total supply!\");\n        \n        address human = ensureOneHuman(_from, _to);\n        ensureOneTxPerBlock(human);\n\n        uint256 totalRewards = _value / _rewardsFactor;\n\n        // Attempt transfer to designated address minus rewards fee\n        if (ERC20.transferFrom(_from, _to, _value - totalRewards)) {\n        \n            // Transfer rewards to rewards wallet\n            ERC20.transferFrom(_from, _rewardsAddress, totalRewards);\n\n            // Mark block number at this address\n            _blockNumberByAddress[human] = block.number;\n            return true;\n        } \n        else \n        {\n            return false;\n        }\n    }\n\n    function mint(address to, uint256 amount) public {\n        // Check that the calling account has the minter role\n        require(hasRole(MINTER_ROLE, msg.sender), \"Caller is not a minter\");\n        _mint(to, amount);\n    }\n}\n",
  "sourcePath": "C:\\blockchain\\krontoken\\build\\contracts\\KronToken\\KronToken.sol",
  "compiler": {
    "name": "solc",
    "version": "0.8.7+commit.e28d00a7.Emscripten.clang"
  },
  "schemaVersion": "3.4.2",
  "updatedAt": "2021-08-28T17:49:39.150Z",
  "devdoc": {
    "kind": "dev",
    "methods": {
      "allowance(address,address)": {
        "details": "See {IERC20-allowance}."
      },
      "approve(address,uint256)": {
        "details": "See {IERC20-approve}. Requirements: - `spender` cannot be the zero address."
      },
      "balanceOf(address)": {
        "details": "See {IERC20-balanceOf}."
      },
      "burn(uint256)": {
        "details": "Destroys `amount` tokens from the caller. See {ERC20-_burn}."
      },
      "burnFrom(address,uint256)": {
        "details": "Destroys `amount` tokens from `account`, deducting from the caller's allowance. See {ERC20-_burn} and {ERC20-allowance}. Requirements: - the caller must have allowance for ``accounts``'s tokens of at least `amount`."
      },
      "decimals()": {
        "details": "Returns the number of decimals used to get its user representation. For example, if `decimals` equals `2`, a balance of `505` tokens should be displayed to a user as `5,05` (`505 / 10 ** 2`). Tokens usually opt for a value of 18, imitating the relationship between Ether and Wei. This is the value {ERC20} uses, unless this function is overridden; NOTE: This information is only used for _display_ purposes: it in no way affects any of the arithmetic of the contract, including {IERC20-balanceOf} and {IERC20-transfer}."
      },
      "decreaseAllowance(address,uint256)": {
        "details": "Atomically decreases the allowance granted to `spender` by the caller. This is an alternative to {approve} that can be used as a mitigation for problems described in {IERC20-approve}. Emits an {Approval} event indicating the updated allowance. Requirements: - `spender` cannot be the zero address. - `spender` must have allowance for the caller of at least `subtractedValue`."
      },
      "getRoleAdmin(bytes32)": {
        "details": "Returns the admin role that controls `role`. See {grantRole} and {revokeRole}. To change a role's admin, use {_setRoleAdmin}."
      },
      "grantRole(bytes32,address)": {
        "details": "Grants `role` to `account`. If `account` had not been already granted `role`, emits a {RoleGranted} event. Requirements: - the caller must have ``role``'s admin role."
      },
      "hasRole(bytes32,address)": {
        "details": "Returns `true` if `account` has been granted `role`."
      },
      "increaseAllowance(address,uint256)": {
        "details": "Atomically increases the allowance granted to `spender` by the caller. This is an alternative to {approve} that can be used as a mitigation for problems described in {IERC20-approve}. Emits an {Approval} event indicating the updated allowance. Requirements: - `spender` cannot be the zero address."
      },
      "name()": {
        "details": "Returns the name of the token."
      },
      "renounceRole(bytes32,address)": {
        "details": "Revokes `role` from the calling account. Roles are often managed via {grantRole} and {revokeRole}: this function's purpose is to provide a mechanism for accounts to lose their privileges if they are compromised (such as when a trusted device is misplaced). If the calling account had been granted `role`, emits a {RoleRevoked} event. Requirements: - the caller must be `account`."
      },
      "revokeRole(bytes32,address)": {
        "details": "Revokes `role` from `account`. If `account` had been granted `role`, emits a {RoleRevoked} event. Requirements: - the caller must have ``role``'s admin role."
      },
      "supportsInterface(bytes4)": {
        "details": "See {IERC165-supportsInterface}."
      },
      "symbol()": {
        "details": "Returns the symbol of the token, usually a shorter version of the name."
      },
      "totalSupply()": {
        "details": "See {IERC20-totalSupply}."
      }
    },
    "version": 1
  },
  "userdoc": {
    "kind": "user",
    "methods": {},
    "version": 1
  }
}