{
  "contractName": "XKronToken",
  "abi": [
    {
      "inputs": [],
      "stateMutability": "nonpayable",
      "type": "constructor"
    },
    {
      "anonymous": false,
      "inputs": [
        {
          "indexed": true,
          "internalType": "address",
          "name": "owner",
          "type": "address"
        },
        {
          "indexed": true,
          "internalType": "address",
          "name": "spender",
          "type": "address"
        },
        {
          "indexed": false,
          "internalType": "uint256",
          "name": "value",
          "type": "uint256"
        }
      ],
      "name": "Approval",
      "type": "event"
    },
    {
      "anonymous": false,
      "inputs": [
        {
          "indexed": true,
          "internalType": "bytes32",
          "name": "role",
          "type": "bytes32"
        },
        {
          "indexed": true,
          "internalType": "bytes32",
          "name": "previousAdminRole",
          "type": "bytes32"
        },
        {
          "indexed": true,
          "internalType": "bytes32",
          "name": "newAdminRole",
          "type": "bytes32"
        }
      ],
      "name": "RoleAdminChanged",
      "type": "event"
    },
    {
      "anonymous": false,
      "inputs": [
        {
          "indexed": true,
          "internalType": "bytes32",
          "name": "role",
          "type": "bytes32"
        },
        {
          "indexed": true,
          "internalType": "address",
          "name": "account",
          "type": "address"
        },
        {
          "indexed": true,
          "internalType": "address",
          "name": "sender",
          "type": "address"
        }
      ],
      "name": "RoleGranted",
      "type": "event"
    },
    {
      "anonymous": false,
      "inputs": [
        {
          "indexed": true,
          "internalType": "bytes32",
          "name": "role",
          "type": "bytes32"
        },
        {
          "indexed": true,
          "internalType": "address",
          "name": "account",
          "type": "address"
        },
        {
          "indexed": true,
          "internalType": "address",
          "name": "sender",
          "type": "address"
        }
      ],
      "name": "RoleRevoked",
      "type": "event"
    },
    {
      "anonymous": false,
      "inputs": [
        {
          "indexed": true,
          "internalType": "address",
          "name": "from",
          "type": "address"
        },
        {
          "indexed": true,
          "internalType": "address",
          "name": "to",
          "type": "address"
        },
        {
          "indexed": false,
          "internalType": "uint256",
          "name": "value",
          "type": "uint256"
        }
      ],
      "name": "Transfer",
      "type": "event"
    },
    {
      "inputs": [],
      "name": "DEFAULT_ADMIN_ROLE",
      "outputs": [
        {
          "internalType": "bytes32",
          "name": "",
          "type": "bytes32"
        }
      ],
      "stateMutability": "view",
      "type": "function"
    },
    {
      "inputs": [],
      "name": "MINTER_ROLE",
      "outputs": [
        {
          "internalType": "bytes32",
          "name": "",
          "type": "bytes32"
        }
      ],
      "stateMutability": "view",
      "type": "function"
    },
    {
      "inputs": [
        {
          "internalType": "address",
          "name": "owner",
          "type": "address"
        },
        {
          "internalType": "address",
          "name": "spender",
          "type": "address"
        }
      ],
      "name": "allowance",
      "outputs": [
        {
          "internalType": "uint256",
          "name": "",
          "type": "uint256"
        }
      ],
      "stateMutability": "view",
      "type": "function"
    },
    {
      "inputs": [
        {
          "internalType": "address",
          "name": "spender",
          "type": "address"
        },
        {
          "internalType": "uint256",
          "name": "amount",
          "type": "uint256"
        }
      ],
      "name": "approve",
      "outputs": [
        {
          "internalType": "bool",
          "name": "",
          "type": "bool"
        }
      ],
      "stateMutability": "nonpayable",
      "type": "function"
    },
    {
      "inputs": [
        {
          "internalType": "address",
          "name": "account",
          "type": "address"
        }
      ],
      "name": "balanceOf",
      "outputs": [
        {
          "internalType": "uint256",
          "name": "",
          "type": "uint256"
        }
      ],
      "stateMutability": "view",
      "type": "function"
    },
    {
      "inputs": [
        {
          "internalType": "uint256",
          "name": "amount",
          "type": "uint256"
        }
      ],
      "name": "burn",
      "outputs": [],
      "stateMutability": "nonpayable",
      "type": "function"
    },
    {
      "inputs": [
        {
          "internalType": "address",
          "name": "account",
          "type": "address"
        },
        {
          "internalType": "uint256",
          "name": "amount",
          "type": "uint256"
        }
      ],
      "name": "burnFrom",
      "outputs": [],
      "stateMutability": "nonpayable",
      "type": "function"
    },
    {
      "inputs": [],
      "name": "decimals",
      "outputs": [
        {
          "internalType": "uint8",
          "name": "",
          "type": "uint8"
        }
      ],
      "stateMutability": "view",
      "type": "function"
    },
    {
      "inputs": [
        {
          "internalType": "address",
          "name": "spender",
          "type": "address"
        },
        {
          "internalType": "uint256",
          "name": "subtractedValue",
          "type": "uint256"
        }
      ],
      "name": "decreaseAllowance",
      "outputs": [
        {
          "internalType": "bool",
          "name": "",
          "type": "bool"
        }
      ],
      "stateMutability": "nonpayable",
      "type": "function"
    },
    {
      "inputs": [
        {
          "internalType": "bytes32",
          "name": "role",
          "type": "bytes32"
        }
      ],
      "name": "getRoleAdmin",
      "outputs": [
        {
          "internalType": "bytes32",
          "name": "",
          "type": "bytes32"
        }
      ],
      "stateMutability": "view",
      "type": "function"
    },
    {
      "inputs": [
        {
          "internalType": "bytes32",
          "name": "role",
          "type": "bytes32"
        },
        {
          "internalType": "address",
          "name": "account",
          "type": "address"
        }
      ],
      "name": "grantRole",
      "outputs": [],
      "stateMutability": "nonpayable",
      "type": "function"
    },
    {
      "inputs": [
        {
          "internalType": "bytes32",
          "name": "role",
          "type": "bytes32"
        },
        {
          "internalType": "address",
          "name": "account",
          "type": "address"
        }
      ],
      "name": "hasRole",
      "outputs": [
        {
          "internalType": "bool",
          "name": "",
          "type": "bool"
        }
      ],
      "stateMutability": "view",
      "type": "function"
    },
    {
      "inputs": [
        {
          "internalType": "address",
          "name": "spender",
          "type": "address"
        },
        {
          "internalType": "uint256",
          "name": "addedValue",
          "type": "uint256"
        }
      ],
      "name": "increaseAllowance",
      "outputs": [
        {
          "internalType": "bool",
          "name": "",
          "type": "bool"
        }
      ],
      "stateMutability": "nonpayable",
      "type": "function"
    },
    {
      "inputs": [],
      "name": "name",
      "outputs": [
        {
          "internalType": "string",
          "name": "",
          "type": "string"
        }
      ],
      "stateMutability": "view",
      "type": "function"
    },
    {
      "inputs": [
        {
          "internalType": "bytes32",
          "name": "role",
          "type": "bytes32"
        },
        {
          "internalType": "address",
          "name": "account",
          "type": "address"
        }
      ],
      "name": "renounceRole",
      "outputs": [],
      "stateMutability": "nonpayable",
      "type": "function"
    },
    {
      "inputs": [
        {
          "internalType": "bytes32",
          "name": "role",
          "type": "bytes32"
        },
        {
          "internalType": "address",
          "name": "account",
          "type": "address"
        }
      ],
      "name": "revokeRole",
      "outputs": [],
      "stateMutability": "nonpayable",
      "type": "function"
    },
    {
      "inputs": [
        {
          "internalType": "bytes4",
          "name": "interfaceId",
          "type": "bytes4"
        }
      ],
      "name": "supportsInterface",
      "outputs": [
        {
          "internalType": "bool",
          "name": "",
          "type": "bool"
        }
      ],
      "stateMutability": "view",
      "type": "function"
    },
    {
      "inputs": [],
      "name": "symbol",
      "outputs": [
        {
          "internalType": "string",
          "name": "",
          "type": "string"
        }
      ],
      "stateMutability": "view",
      "type": "function"
    },
    {
      "inputs": [],
      "name": "totalSupply",
      "outputs": [
        {
          "internalType": "uint256",
          "name": "",
          "type": "uint256"
        }
      ],
      "stateMutability": "view",
      "type": "function"
    },
    {
      "inputs": [
        {
          "internalType": "address",
          "name": "_to",
          "type": "address"
        },
        {
          "internalType": "uint256",
          "name": "_value",
          "type": "uint256"
        }
      ],
      "name": "transfer",
      "outputs": [
        {
          "internalType": "bool",
          "name": "",
          "type": "bool"
        }
      ],
      "stateMutability": "nonpayable",
      "type": "function"
    },
    {
      "inputs": [
        {
          "internalType": "address",
          "name": "_from",
          "type": "address"
        },
        {
          "internalType": "address",
          "name": "_to",
          "type": "address"
        },
        {
          "internalType": "uint256",
          "name": "_value",
          "type": "uint256"
        }
      ],
      "name": "transferFrom",
      "outputs": [
        {
          "internalType": "bool",
          "name": "",
          "type": "bool"
        }
      ],
      "stateMutability": "nonpayable",
      "type": "function"
    },
    {
      "inputs": [
        {
          "internalType": "address",
          "name": "to",
          "type": "address"
        },
        {
          "internalType": "uint256",
          "name": "amount",
          "type": "uint256"
        }
      ],
      "name": "mint",
      "outputs": [],
      "stateMutability": "nonpayable",
      "type": "function"
    }
  ],
  "bytecode": "0x60806040526b015b6a759f4835dc240000006007553480156200002157600080fd5b506040518060400160405280600b81526020017f784b524f4e20546f6b656e0000000000000000000000000000000000000000008152506040518060400160405280600581526020017f784b524f4e0000000000000000000000000000000000000000000000000000008152508160039080519060200190620000a692919062000474565b508060049080519060200190620000bf92919062000474565b50505033600660006101000a81548173ffffffffffffffffffffffffffffffffffffffff021916908373ffffffffffffffffffffffffffffffffffffffff16021790555062000139600660009054906101000a900473ffffffffffffffffffffffffffffffffffffffff166007546200017660201b60201c565b620001706000801b600660009054906101000a900473ffffffffffffffffffffffffffffffffffffffff16620002ef60201b60201c565b620006d0565b600073ffffffffffffffffffffffffffffffffffffffff168273ffffffffffffffffffffffffffffffffffffffff161415620001e9576040517f08c379a0000000000000000000000000000000000000000000000000000000008152600401620001e0906200055c565b60405180910390fd5b620001fd600083836200030560201b60201c565b8060026000828254620002119190620005ac565b92505081905550806000808473ffffffffffffffffffffffffffffffffffffffff1673ffffffffffffffffffffffffffffffffffffffff1681526020019081526020016000206000828254620002689190620005ac565b925050819055508173ffffffffffffffffffffffffffffffffffffffff16600073ffffffffffffffffffffffffffffffffffffffff167fddf252ad1be2c89b69c2b068fc378daa952ba7f163c4a11628f55a4df523b3ef83604051620002cf91906200057e565b60405180910390a3620002eb600083836200030a60201b60201c565b5050565b6200030182826200030f60201b60201c565b5050565b505050565b505050565b6200032182826200040160201b60201c565b620003fd5760016005600084815260200190815260200160002060000160008373ffffffffffffffffffffffffffffffffffffffff1673ffffffffffffffffffffffffffffffffffffffff16815260200190815260200160002060006101000a81548160ff021916908315150217905550620003a26200046c60201b60201c565b73ffffffffffffffffffffffffffffffffffffffff168173ffffffffffffffffffffffffffffffffffffffff16837f2f8788117e7eff1d82e926ec794901d17c78024a50270940304540a733656f0d60405160405180910390a45b5050565b60006005600084815260200190815260200160002060000160008373ffffffffffffffffffffffffffffffffffffffff1673ffffffffffffffffffffffffffffffffffffffff16815260200190815260200160002060009054906101000a900460ff16905092915050565b600033905090565b828054620004829062000613565b90600052602060002090601f016020900481019282620004a65760008555620004f2565b82601f10620004c157805160ff1916838001178555620004f2565b82800160010185558215620004f2579182015b82811115620004f1578251825591602001919060010190620004d4565b5b50905062000501919062000505565b5090565b5b808211156200052057600081600090555060010162000506565b5090565b600062000533601f836200059b565b91506200054082620006a7565b602082019050919050565b620005568162000609565b82525050565b60006020820190508181036000830152620005778162000524565b9050919050565b60006020820190506200059560008301846200054b565b92915050565b600082825260208201905092915050565b6000620005b98262000609565b9150620005c68362000609565b9250827fffffffffffffffffffffffffffffffffffffffffffffffffffffffffffffffff03821115620005fe57620005fd62000649565b5b828201905092915050565b6000819050919050565b600060028204905060018216806200062c57607f821691505b6020821081141562000643576200064262000678565b5b50919050565b7f4e487b7100000000000000000000000000000000000000000000000000000000600052601160045260246000fd5b7f4e487b7100000000000000000000000000000000000000000000000000000000600052602260045260246000fd5b7f45524332303a206d696e7420746f20746865207a65726f206164647265737300600082015250565b612bc680620006e06000396000f3fe608060405234801561001057600080fd5b50600436106101425760003560e01c806342966c68116100b8578063a217fddf1161007c578063a217fddf1461039b578063a457c2d7146103b9578063a9059cbb146103e9578063d539139314610419578063d547741f14610437578063dd62ed3e1461045357610142565b806342966c68146102e557806370a082311461030157806379cc67901461033157806391d148541461034d57806395d89b411461037d57610142565b8063248a9ca31161010a578063248a9ca3146102135780632f2ff15d14610243578063313ce5671461025f57806336568abe1461027d578063395093511461029957806340c10f19146102c957610142565b806301ffc9a71461014757806306fdde0314610177578063095ea7b31461019557806318160ddd146101c557806323b872dd146101e3575b600080fd5b610161600480360381019061015c9190611d2f565b610483565b60405161016e91906120df565b60405180910390f35b61017f6104fd565b60405161018c9190612115565b60405180910390f35b6101af60048036038101906101aa9190611c82565b61058f565b6040516101bc91906120df565b60405180910390f35b6101cd6105ad565b6040516101da9190612337565b60405180910390f35b6101fd60048036038101906101f89190611c2f565b6105b7565b60405161020a91906120df565b60405180910390f35b61022d60048036038101906102289190611cc2565b61063a565b60405161023a91906120fa565b60405180910390f35b61025d60048036038101906102589190611cef565b61065a565b005b610267610683565b6040516102749190612352565b60405180910390f35b61029760048036038101906102929190611cef565b61068c565b005b6102b360048036038101906102ae9190611c82565b61070f565b6040516102c091906120df565b60405180910390f35b6102e360048036038101906102de9190611c82565b6107bb565b005b6102ff60048036038101906102fa9190611d5c565b610832565b005b61031b60048036038101906103169190611bc2565b610846565b6040516103289190612337565b60405180910390f35b61034b60048036038101906103469190611c82565b61088e565b005b61036760048036038101906103629190611cef565b610909565b60405161037491906120df565b60405180910390f35b610385610974565b6040516103929190612115565b60405180910390f35b6103a3610a06565b6040516103b091906120fa565b60405180910390f35b6103d360048036038101906103ce9190611c82565b610a0d565b6040516103e091906120df565b60405180910390f35b61040360048036038101906103fe9190611c82565b610af8565b60405161041091906120df565b60405180910390f35b610421610b87565b60405161042e91906120fa565b60405180910390f35b610451600480360381019061044c9190611cef565b610bab565b005b61046d60048036038101906104689190611bef565b610bd4565b60405161047a9190612337565b60405180910390f35b60007f7965db0b000000000000000000000000000000000000000000000000000000007bffffffffffffffffffffffffffffffffffffffffffffffffffffffff1916827bffffffffffffffffffffffffffffffffffffffffffffffffffffffff191614806104f657506104f582610c5b565b5b9050919050565b60606003805461050c90612560565b80601f016020809104026020016040519081016040528092919081815260200182805461053890612560565b80156105855780601f1061055a57610100808354040283529160200191610585565b820191906000526020600020905b81548152906001019060200180831161056857829003601f168201915b5050505050905090565b60006105a361059c610cc5565b8484610ccd565b6001905092915050565b6000600254905090565b6000806105c48585610e98565b90506105cf81610f14565b6105da858585610fe7565b1561062d5743600860008373ffffffffffffffffffffffffffffffffffffffff1673ffffffffffffffffffffffffffffffffffffffff168152602001908152602001600020819055506001915050610633565b60009150505b9392505050565b600060056000838152602001908152602001600020600101549050919050565b6106638261063a565b6106748161066f610cc5565b6110df565b61067e838361117c565b505050565b60006012905090565b610694610cc5565b73ffffffffffffffffffffffffffffffffffffffff168173ffffffffffffffffffffffffffffffffffffffff1614610701576040517f08c379a00000000000000000000000000000000000000000000000000000000081526004016106f8906122f7565b60405180910390fd5b61070b828261125d565b5050565b60006107b161071c610cc5565b84846001600061072a610cc5565b73ffffffffffffffffffffffffffffffffffffffff1673ffffffffffffffffffffffffffffffffffffffff16815260200190815260200160002060008873ffffffffffffffffffffffffffffffffffffffff1673ffffffffffffffffffffffffffffffffffffffff168152602001908152602001600020546107ac9190612394565b610ccd565b6001905092915050565b6107e57f9f2df0fed2c77648de5860a4cc508cd0818c85b8b8a1ab4ceeef8d981c8956a633610909565b610824576040517f08c379a000000000000000000000000000000000000000000000000000000000815260040161081b906121f7565b60405180910390fd5b61082e828261133f565b5050565b61084361083d610cc5565b8261149f565b50565b60008060008373ffffffffffffffffffffffffffffffffffffffff1673ffffffffffffffffffffffffffffffffffffffff168152602001908152602001600020549050919050565b60006108a18361089c610cc5565b610bd4565b9050818110156108e6576040517f08c379a00000000000000000000000000000000000000000000000000000000081526004016108dd90612237565b60405180910390fd5b6108fa836108f2610cc5565b848403610ccd565b610904838361149f565b505050565b60006005600084815260200190815260200160002060000160008373ffffffffffffffffffffffffffffffffffffffff1673ffffffffffffffffffffffffffffffffffffffff16815260200190815260200160002060009054906101000a900460ff16905092915050565b60606004805461098390612560565b80601f01602080910402602001604051908101604052809291908181526020018280546109af90612560565b80156109fc5780601f106109d1576101008083540402835291602001916109fc565b820191906000526020600020905b8154815290600101906020018083116109df57829003601f168201915b5050505050905090565b6000801b81565b60008060016000610a1c610cc5565b73ffffffffffffffffffffffffffffffffffffffff1673ffffffffffffffffffffffffffffffffffffffff16815260200190815260200160002060008573ffffffffffffffffffffffffffffffffffffffff1673ffffffffffffffffffffffffffffffffffffffff16815260200190815260200160002054905082811015610ad9576040517f08c379a0000000000000000000000000000000000000000000000000000000008152600401610ad0906122d7565b60405180910390fd5b610aed610ae4610cc5565b85858403610ccd565b600191505092915050565b600080610b03610cc5565b90506000610b118286610e98565b9050610b1c81610f14565b610b268585611676565b15610b7a5743600860008373ffffffffffffffffffffffffffffffffffffffff1673ffffffffffffffffffffffffffffffffffffffff16815260200190815260200160002081905550600192505050610b81565b6000925050505b92915050565b7f9f2df0fed2c77648de5860a4cc508cd0818c85b8b8a1ab4ceeef8d981c8956a681565b610bb48261063a565b610bc581610bc0610cc5565b6110df565b610bcf838361125d565b505050565b6000600160008473ffffffffffffffffffffffffffffffffffffffff1673ffffffffffffffffffffffffffffffffffffffff16815260200190815260200160002060008373ffffffffffffffffffffffffffffffffffffffff1673ffffffffffffffffffffffffffffffffffffffff16815260200190815260200160002054905092915050565b60007f01ffc9a7000000000000000000000000000000000000000000000000000000007bffffffffffffffffffffffffffffffffffffffffffffffffffffffff1916827bffffffffffffffffffffffffffffffffffffffffffffffffffffffff1916149050919050565b600033905090565b600073ffffffffffffffffffffffffffffffffffffffff168373ffffffffffffffffffffffffffffffffffffffff161415610d3d576040517f08c379a0000000000000000000000000000000000000000000000000000000008152600401610d3490612297565b60405180910390fd5b600073ffffffffffffffffffffffffffffffffffffffff168273ffffffffffffffffffffffffffffffffffffffff161415610dad576040517f08c379a0000000000000000000000000000000000000000000000000000000008152600401610da490612197565b60405180910390fd5b80600160008573ffffffffffffffffffffffffffffffffffffffff1673ffffffffffffffffffffffffffffffffffffffff16815260200190815260200160002060008473ffffffffffffffffffffffffffffffffffffffff1673ffffffffffffffffffffffffffffffffffffffff168152602001908152602001600020819055508173ffffffffffffffffffffffffffffffffffffffff168373ffffffffffffffffffffffffffffffffffffffff167f8c5be1e5ebec7d5bd14f71427d1e84f3dd0314c0f7b2291e5b200ac8c7c3b92583604051610e8b9190612337565b60405180910390a3505050565b6000610ea383611694565b1580610eb55750610eb382611694565b155b610ef4576040517f08c379a0000000000000000000000000000000000000000000000000000000008152600401610eeb906122b7565b60405180910390fd5b610efd83611694565b15610f0a57819050610f0e565b8290505b92915050565b600080600860008473ffffffffffffffffffffffffffffffffffffffff1673ffffffffffffffffffffffffffffffffffffffff168152602001908152602001600020541480610fa1575043600860008473ffffffffffffffffffffffffffffffffffffffff1673ffffffffffffffffffffffffffffffffffffffff16815260200190815260200160002054105b905080610fe3576040517f08c379a0000000000000000000000000000000000000000000000000000000008152600401610fda906121d7565b60405180910390fd5b5050565b6000610ff48484846116a7565b6000600160008673ffffffffffffffffffffffffffffffffffffffff1673ffffffffffffffffffffffffffffffffffffffff168152602001908152602001600020600061103f610cc5565b73ffffffffffffffffffffffffffffffffffffffff1673ffffffffffffffffffffffffffffffffffffffff168152602001908152602001600020549050828110156110bf576040517f08c379a00000000000000000000000000000000000000000000000000000000081526004016110b690612217565b60405180910390fd5b6110d3856110cb610cc5565b858403610ccd565b60019150509392505050565b6110e98282610909565b6111785761110e8173ffffffffffffffffffffffffffffffffffffffff166014611928565b61111c8360001c6020611928565b60405160200161112d9291906120a5565b6040516020818303038152906040526040517f08c379a000000000000000000000000000000000000000000000000000000000815260040161116f9190612115565b60405180910390fd5b5050565b6111868282610909565b6112595760016005600084815260200190815260200160002060000160008373ffffffffffffffffffffffffffffffffffffffff1673ffffffffffffffffffffffffffffffffffffffff16815260200190815260200160002060006101000a81548160ff0219169083151502179055506111fe610cc5565b73ffffffffffffffffffffffffffffffffffffffff168173ffffffffffffffffffffffffffffffffffffffff16837f2f8788117e7eff1d82e926ec794901d17c78024a50270940304540a733656f0d60405160405180910390a45b5050565b6112678282610909565b1561133b5760006005600084815260200190815260200160002060000160008373ffffffffffffffffffffffffffffffffffffffff1673ffffffffffffffffffffffffffffffffffffffff16815260200190815260200160002060006101000a81548160ff0219169083151502179055506112e0610cc5565b73ffffffffffffffffffffffffffffffffffffffff168173ffffffffffffffffffffffffffffffffffffffff16837ff6391f5c32d9c69d2a47ea670b442974b53935d1edc7fd64eb21e047a839171b60405160405180910390a45b5050565b600073ffffffffffffffffffffffffffffffffffffffff168273ffffffffffffffffffffffffffffffffffffffff1614156113af576040517f08c379a00000000000000000000000000000000000000000000000000000000081526004016113a690612317565b60405180910390fd5b6113bb60008383611b64565b80600260008282546113cd9190612394565b92505081905550806000808473ffffffffffffffffffffffffffffffffffffffff1673ffffffffffffffffffffffffffffffffffffffff16815260200190815260200160002060008282546114229190612394565b925050819055508173ffffffffffffffffffffffffffffffffffffffff16600073ffffffffffffffffffffffffffffffffffffffff167fddf252ad1be2c89b69c2b068fc378daa952ba7f163c4a11628f55a4df523b3ef836040516114879190612337565b60405180910390a361149b60008383611b69565b5050565b600073ffffffffffffffffffffffffffffffffffffffff168273ffffffffffffffffffffffffffffffffffffffff16141561150f576040517f08c379a000000000000000000000000000000000000000000000000000000000815260040161150690612257565b60405180910390fd5b61151b82600083611b64565b60008060008473ffffffffffffffffffffffffffffffffffffffff1673ffffffffffffffffffffffffffffffffffffffff168152602001908152602001600020549050818110156115a1576040517f08c379a000000000000000000000000000000000000000000000000000000000815260040161159890612177565b60405180910390fd5b8181036000808573ffffffffffffffffffffffffffffffffffffffff1673ffffffffffffffffffffffffffffffffffffffff1681526020019081526020016000208190555081600260008282546115f89190612444565b92505081905550600073ffffffffffffffffffffffffffffffffffffffff168373ffffffffffffffffffffffffffffffffffffffff167fddf252ad1be2c89b69c2b068fc378daa952ba7f163c4a11628f55a4df523b3ef8460405161165d9190612337565b60405180910390a361167183600084611b69565b505050565b600061168a611683610cc5565b84846116a7565b6001905092915050565b600080823b905060008111915050919050565b600073ffffffffffffffffffffffffffffffffffffffff168373ffffffffffffffffffffffffffffffffffffffff161415611717576040517f08c379a000000000000000000000000000000000000000000000000000000000815260040161170e90612277565b60405180910390fd5b600073ffffffffffffffffffffffffffffffffffffffff168273ffffffffffffffffffffffffffffffffffffffff161415611787576040517f08c379a000000000000000000000000000000000000000000000000000000000815260040161177e90612157565b60405180910390fd5b611792838383611b64565b60008060008573ffffffffffffffffffffffffffffffffffffffff1673ffffffffffffffffffffffffffffffffffffffff16815260200190815260200160002054905081811015611818576040517f08c379a000000000000000000000000000000000000000000000000000000000815260040161180f906121b7565b60405180910390fd5b8181036000808673ffffffffffffffffffffffffffffffffffffffff1673ffffffffffffffffffffffffffffffffffffffff16815260200190815260200160002081905550816000808573ffffffffffffffffffffffffffffffffffffffff1673ffffffffffffffffffffffffffffffffffffffff16815260200190815260200160002060008282546118ab9190612394565b925050819055508273ffffffffffffffffffffffffffffffffffffffff168473ffffffffffffffffffffffffffffffffffffffff167fddf252ad1be2c89b69c2b068fc378daa952ba7f163c4a11628f55a4df523b3ef8460405161190f9190612337565b60405180910390a3611922848484611b69565b50505050565b60606000600283600261193b91906123ea565b6119459190612394565b67ffffffffffffffff81111561195e5761195d61261f565b5b6040519080825280601f01601f1916602001820160405280156119905781602001600182028036833780820191505090505b5090507f3000000000000000000000000000000000000000000000000000000000000000816000815181106119c8576119c76125f0565b5b60200101907effffffffffffffffffffffffffffffffffffffffffffffffffffffffffffff1916908160001a9053507f780000000000000000000000000000000000000000000000000000000000000081600181518110611a2c57611a2b6125f0565b5b60200101907effffffffffffffffffffffffffffffffffffffffffffffffffffffffffffff1916908160001a90535060006001846002611a6c91906123ea565b611a769190612394565b90505b6001811115611b16577f3031323334353637383961626364656600000000000000000000000000000000600f861660108110611ab857611ab76125f0565b5b1a60f81b828281518110611acf57611ace6125f0565b5b60200101907effffffffffffffffffffffffffffffffffffffffffffffffffffffffffffff1916908160001a905350600485901c945080611b0f90612536565b9050611a79565b5060008414611b5a576040517f08c379a0000000000000000000000000000000000000000000000000000000008152600401611b5190612137565b60405180910390fd5b8091505092915050565b505050565b505050565b600081359050611b7d81612b34565b92915050565b600081359050611b9281612b4b565b92915050565b600081359050611ba781612b62565b92915050565b600081359050611bbc81612b79565b92915050565b600060208284031215611bd857611bd761264e565b5b6000611be684828501611b6e565b91505092915050565b60008060408385031215611c0657611c0561264e565b5b6000611c1485828601611b6e565b9250506020611c2585828601611b6e565b9150509250929050565b600080600060608486031215611c4857611c4761264e565b5b6000611c5686828701611b6e565b9350506020611c6786828701611b6e565b9250506040611c7886828701611bad565b9150509250925092565b60008060408385031215611c9957611c9861264e565b5b6000611ca785828601611b6e565b9250506020611cb885828601611bad565b9150509250929050565b600060208284031215611cd857611cd761264e565b5b6000611ce684828501611b83565b91505092915050565b60008060408385031215611d0657611d0561264e565b5b6000611d1485828601611b83565b9250506020611d2585828601611b6e565b9150509250929050565b600060208284031215611d4557611d4461264e565b5b6000611d5384828501611b98565b91505092915050565b600060208284031215611d7257611d7161264e565b5b6000611d8084828501611bad565b91505092915050565b611d928161248a565b82525050565b611da181612496565b82525050565b6000611db28261236d565b611dbc8185612378565b9350611dcc818560208601612503565b611dd581612653565b840191505092915050565b6000611deb8261236d565b611df58185612389565b9350611e05818560208601612503565b80840191505092915050565b6000611e1e602083612378565b9150611e2982612664565b602082019050919050565b6000611e41602383612378565b9150611e4c8261268d565b604082019050919050565b6000611e64602283612378565b9150611e6f826126dc565b604082019050919050565b6000611e87602283612378565b9150611e928261272b565b604082019050919050565b6000611eaa602683612378565b9150611eb58261277a565b604082019050919050565b6000611ecd603683612378565b9150611ed8826127c9565b604082019050919050565b6000611ef0601683612378565b9150611efb82612818565b602082019050919050565b6000611f13602883612378565b9150611f1e82612841565b604082019050919050565b6000611f36602483612378565b9150611f4182612890565b604082019050919050565b6000611f59602183612378565b9150611f64826128df565b604082019050919050565b6000611f7c602583612378565b9150611f878261292e565b604082019050919050565b6000611f9f602483612378565b9150611faa8261297d565b604082019050919050565b6000611fc2601783612389565b9150611fcd826129cc565b601782019050919050565b6000611fe5603283612378565b9150611ff0826129f5565b604082019050919050565b6000612008602583612378565b915061201382612a44565b604082019050919050565b600061202b601183612389565b915061203682612a93565b601182019050919050565b600061204e602f83612378565b915061205982612abc565b604082019050919050565b6000612071601f83612378565b915061207c82612b0b565b602082019050919050565b612090816124ec565b82525050565b61209f816124f6565b82525050565b60006120b082611fb5565b91506120bc8285611de0565b91506120c78261201e565b91506120d38284611de0565b91508190509392505050565b60006020820190506120f46000830184611d89565b92915050565b600060208201905061210f6000830184611d98565b92915050565b6000602082019050818103600083015261212f8184611da7565b905092915050565b6000602082019050818103600083015261215081611e11565b9050919050565b6000602082019050818103600083015261217081611e34565b9050919050565b6000602082019050818103600083015261219081611e57565b9050919050565b600060208201905081810360008301526121b081611e7a565b9050919050565b600060208201905081810360008301526121d081611e9d565b9050919050565b600060208201905081810360008301526121f081611ec0565b9050919050565b6000602082019050818103600083015261221081611ee3565b9050919050565b6000602082019050818103600083015261223081611f06565b9050919050565b6000602082019050818103600083015261225081611f29565b9050919050565b6000602082019050818103600083015261227081611f4c565b9050919050565b6000602082019050818103600083015261229081611f6f565b9050919050565b600060208201905081810360008301526122b081611f92565b9050919050565b600060208201905081810360008301526122d081611fd8565b9050919050565b600060208201905081810360008301526122f081611ffb565b9050919050565b6000602082019050818103600083015261231081612041565b9050919050565b6000602082019050818103600083015261233081612064565b9050919050565b600060208201905061234c6000830184612087565b92915050565b60006020820190506123676000830184612096565b92915050565b600081519050919050565b600082825260208201905092915050565b600081905092915050565b600061239f826124ec565b91506123aa836124ec565b9250827fffffffffffffffffffffffffffffffffffffffffffffffffffffffffffffffff038211156123df576123de612592565b5b828201905092915050565b60006123f5826124ec565b9150612400836124ec565b9250817fffffffffffffffffffffffffffffffffffffffffffffffffffffffffffffffff048311821515161561243957612438612592565b5b828202905092915050565b600061244f826124ec565b915061245a836124ec565b92508282101561246d5761246c612592565b5b828203905092915050565b6000612483826124cc565b9050919050565b60008115159050919050565b6000819050919050565b60007fffffffff0000000000000000000000000000000000000000000000000000000082169050919050565b600073ffffffffffffffffffffffffffffffffffffffff82169050919050565b6000819050919050565b600060ff82169050919050565b60005b83811015612521578082015181840152602081019050612506565b83811115612530576000848401525b50505050565b6000612541826124ec565b9150600082141561255557612554612592565b5b600182039050919050565b6000600282049050600182168061257857607f821691505b6020821081141561258c5761258b6125c1565b5b50919050565b7f4e487b7100000000000000000000000000000000000000000000000000000000600052601160045260246000fd5b7f4e487b7100000000000000000000000000000000000000000000000000000000600052602260045260246000fd5b7f4e487b7100000000000000000000000000000000000000000000000000000000600052603260045260246000fd5b7f4e487b7100000000000000000000000000000000000000000000000000000000600052604160045260246000fd5b600080fd5b6000601f19601f8301169050919050565b7f537472696e67733a20686578206c656e67746820696e73756666696369656e74600082015250565b7f45524332303a207472616e7366657220746f20746865207a65726f206164647260008201527f6573730000000000000000000000000000000000000000000000000000000000602082015250565b7f45524332303a206275726e20616d6f756e7420657863656564732062616c616e60008201527f6365000000000000000000000000000000000000000000000000000000000000602082015250565b7f45524332303a20617070726f766520746f20746865207a65726f20616464726560008201527f7373000000000000000000000000000000000000000000000000000000000000602082015250565b7f45524332303a207472616e7366657220616d6f756e742065786365656473206260008201527f616c616e63650000000000000000000000000000000000000000000000000000602082015250565b7f4b524f4e20546f6b656e3a204f6e6c79206f6e65207472616e73616374696f6e60008201527f2070657220626c6f636b20697320616c6c6f7765642100000000000000000000602082015250565b7f43616c6c6572206973206e6f742061206d696e74657200000000000000000000600082015250565b7f45524332303a207472616e7366657220616d6f756e742065786365656473206160008201527f6c6c6f77616e6365000000000000000000000000000000000000000000000000602082015250565b7f45524332303a206275726e20616d6f756e74206578636565647320616c6c6f7760008201527f616e636500000000000000000000000000000000000000000000000000000000602082015250565b7f45524332303a206275726e2066726f6d20746865207a65726f2061646472657360008201527f7300000000000000000000000000000000000000000000000000000000000000602082015250565b7f45524332303a207472616e736665722066726f6d20746865207a65726f20616460008201527f6472657373000000000000000000000000000000000000000000000000000000602082015250565b7f45524332303a20617070726f76652066726f6d20746865207a65726f2061646460008201527f7265737300000000000000000000000000000000000000000000000000000000602082015250565b7f416363657373436f6e74726f6c3a206163636f756e7420000000000000000000600082015250565b7f4b524f4e20546f6b656e3a2041746c65617374206f6e652068756d616e20616460008201527f6472657373206973207265717569726564210000000000000000000000000000602082015250565b7f45524332303a2064656372656173656420616c6c6f77616e63652062656c6f7760008201527f207a65726f000000000000000000000000000000000000000000000000000000602082015250565b7f206973206d697373696e6720726f6c6520000000000000000000000000000000600082015250565b7f416363657373436f6e74726f6c3a2063616e206f6e6c792072656e6f756e636560008201527f20726f6c657320666f722073656c660000000000000000000000000000000000602082015250565b7f45524332303a206d696e7420746f20746865207a65726f206164647265737300600082015250565b612b3d81612478565b8114612b4857600080fd5b50565b612b5481612496565b8114612b5f57600080fd5b50565b612b6b816124a0565b8114612b7657600080fd5b50565b612b82816124ec565b8114612b8d57600080fd5b5056fea26469706673582212207d415c35a158718185a66affaecd566f0124880147e45624a69a102d46090f7264736f6c63430008070033",
  "immutableReferences": {},
  "source": "// SPDX-License-Identifier: MIT\r\npragma solidity >=0.8.0;\r\n\r\nimport {KronFarm} from \"./KronFarm.sol\";\r\n\r\nimport \"@openzeppelin/contracts/token/ERC20/ERC20.sol\";\r\nimport \"@openzeppelin/contracts/token/ERC20/extensions/ERC20Burnable.sol\";\r\nimport \"@openzeppelin/contracts/utils/Address.sol\";\r\nimport \"@openzeppelin/contracts/access/AccessControl.sol\";\r\n\r\ncontract XKronToken is ERC20, ERC20Burnable, AccessControl {\r\n    \r\n    address private owner;\r\n    uint256 private _totalSupply        = 420000000000000000000000000;\r\n\r\n    // Create a new role identifier for the minter role\r\n    bytes32 public constant MINTER_ROLE = keccak256(\"MINTER_ROLE\");\r\n\r\n    mapping(address => uint256) private _blockNumberByAddress;\r\n\r\n    constructor() ERC20(\"xKRON Token\", \"xKRON\") {\r\n\r\n        // Save deployer / owner address\r\n        owner = msg.sender;\r\n\r\n        // Mint total supply to contract owner\r\n        _mint(owner, _totalSupply);\r\n\r\n        // Grant the admin role to a specified account (contract deployer)\r\n        _setupRole(DEFAULT_ADMIN_ROLE, owner);\r\n    }\r\n\r\n    function ensureOneHuman(address _to, address _from) internal virtual returns (address) {\r\n        require(!Address.isContract(_to) || !Address.isContract(_from), 'KRON Token: Atleast one human address is required!');\r\n        if (Address.isContract(_to)) return _from;\r\n        else return _to;\r\n    }\r\n\r\n    function ensureOneTxPerBlock(address addr) internal virtual {\r\n        bool isNewBlock = _blockNumberByAddress[addr] == 0 ||\r\n        _blockNumberByAddress[addr] < block.number;\r\n\r\n        require(isNewBlock, 'KRON Token: Only one transaction per block is allowed!');\r\n    }\r\n    \r\n    function transfer(address _to, uint256 _value) public virtual override returns (bool) {\r\n\r\n        address _from = _msgSender();\r\n        address human = ensureOneHuman(_from, _to);\r\n        ensureOneTxPerBlock(human);\r\n\r\n        // Attempt transfer of X - Y rewards to specified address\r\n        if (ERC20.transfer(_to, _value)) {\r\n            \r\n            // Mark the block that this address \r\n            _blockNumberByAddress[human] = block.number;\r\n\r\n            // Success\r\n            return true;\r\n        } \r\n        else\r\n        {   \r\n            // Failure\r\n            return false;\r\n        }\r\n    }\r\n\r\n    function transferFrom(address _from, address _to, uint256 _value) public virtual override returns (bool) {\r\n\r\n        address human = ensureOneHuman(_from, _to);\r\n        ensureOneTxPerBlock(human);\r\n\r\n        // Attempt transfer to designated address minus rewards fee\r\n        if (ERC20.transferFrom(_from, _to, _value)) {\r\n        \r\n            // Mark block number at this address\r\n            _blockNumberByAddress[human] = block.number;\r\n            return true;\r\n        } \r\n        else \r\n        {\r\n            return false;\r\n        }\r\n    }\r\n\r\n    function mint(address to, uint256 amount) public {\r\n        // Check that the calling account has the minter role\r\n        require(hasRole(MINTER_ROLE, msg.sender), \"Caller is not a minter\");\r\n        _mint(to, amount);\r\n    }\r\n}\r\n",
  "sourcePath": "C:\\blockchain\\krontoken\\build\\contracts\\KronFarm\\xKronToken.sol",
  "compiler": {
    "name": "solc",
    "version": "0.8.7+commit.e28d00a7.Emscripten.clang"
  },
  "schemaVersion": "3.4.2",
  "updatedAt": "2021-08-20T07:29:05.652Z",
  "devdoc": {
    "kind": "dev",
    "methods": {
      "allowance(address,address)": {
        "details": "See {IERC20-allowance}."
      },
      "approve(address,uint256)": {
        "details": "See {IERC20-approve}. Requirements: - `spender` cannot be the zero address."
      },
      "balanceOf(address)": {
        "details": "See {IERC20-balanceOf}."
      },
      "burn(uint256)": {
        "details": "Destroys `amount` tokens from the caller. See {ERC20-_burn}."
      },
      "burnFrom(address,uint256)": {
        "details": "Destroys `amount` tokens from `account`, deducting from the caller's allowance. See {ERC20-_burn} and {ERC20-allowance}. Requirements: - the caller must have allowance for ``accounts``'s tokens of at least `amount`."
      },
      "decimals()": {
        "details": "Returns the number of decimals used to get its user representation. For example, if `decimals` equals `2`, a balance of `505` tokens should be displayed to a user as `5,05` (`505 / 10 ** 2`). Tokens usually opt for a value of 18, imitating the relationship between Ether and Wei. This is the value {ERC20} uses, unless this function is overridden; NOTE: This information is only used for _display_ purposes: it in no way affects any of the arithmetic of the contract, including {IERC20-balanceOf} and {IERC20-transfer}."
      },
      "decreaseAllowance(address,uint256)": {
        "details": "Atomically decreases the allowance granted to `spender` by the caller. This is an alternative to {approve} that can be used as a mitigation for problems described in {IERC20-approve}. Emits an {Approval} event indicating the updated allowance. Requirements: - `spender` cannot be the zero address. - `spender` must have allowance for the caller of at least `subtractedValue`."
      },
      "getRoleAdmin(bytes32)": {
        "details": "Returns the admin role that controls `role`. See {grantRole} and {revokeRole}. To change a role's admin, use {_setRoleAdmin}."
      },
      "grantRole(bytes32,address)": {
        "details": "Grants `role` to `account`. If `account` had not been already granted `role`, emits a {RoleGranted} event. Requirements: - the caller must have ``role``'s admin role."
      },
      "hasRole(bytes32,address)": {
        "details": "Returns `true` if `account` has been granted `role`."
      },
      "increaseAllowance(address,uint256)": {
        "details": "Atomically increases the allowance granted to `spender` by the caller. This is an alternative to {approve} that can be used as a mitigation for problems described in {IERC20-approve}. Emits an {Approval} event indicating the updated allowance. Requirements: - `spender` cannot be the zero address."
      },
      "name()": {
        "details": "Returns the name of the token."
      },
      "renounceRole(bytes32,address)": {
        "details": "Revokes `role` from the calling account. Roles are often managed via {grantRole} and {revokeRole}: this function's purpose is to provide a mechanism for accounts to lose their privileges if they are compromised (such as when a trusted device is misplaced). If the calling account had been granted `role`, emits a {RoleRevoked} event. Requirements: - the caller must be `account`."
      },
      "revokeRole(bytes32,address)": {
        "details": "Revokes `role` from `account`. If `account` had been granted `role`, emits a {RoleRevoked} event. Requirements: - the caller must have ``role``'s admin role."
      },
      "supportsInterface(bytes4)": {
        "details": "See {IERC165-supportsInterface}."
      },
      "symbol()": {
        "details": "Returns the symbol of the token, usually a shorter version of the name."
      },
      "totalSupply()": {
        "details": "See {IERC20-totalSupply}."
      }
    },
    "version": 1
  },
  "userdoc": {
    "kind": "user",
    "methods": {},
    "version": 1
  }
}